:020000021000EC
:10000000F8FF05103179020085790200B501010081
:10001000BB010100C1010100C70101000000000097
:1000200000000000000000000000000019020100B4
:100030008779020000000000B1020100C102010046
:1000400087790200877902008779020087790200A8
:100050008779020087790200877902008779020098
:100060008779020087790200877902008779020088
:100070009D40010019710200ED7302002579020014
:100080002B790200877902008779020087790200C4
:100090008779020087790200877902008779020058
:1000A0008779020087790200877902008779020048
:1000B0008779020087790200877902008779020038
:1000C0000000000000000000000000000000000030
:1000D0000000000000000000000000000000000020
:1000E0000000000000000000000000000000000010
:1000F0000000000000000000000000000000000000
:1001000010B5054C237833B9044B13B10448AFF351
:1001100000800123237010BD800E0010000000003D
:10012000381A030008B5034B1BB103490348AFF36A
:10013000008008BD00000000840E0010381A030083
:10014000154B002B08BF134B9D46A3F5803A0021A9
:100150008B460F461348144A121A1BF07DFC0F4BB6
:10016000002B00D098470E4B002B00D09847002062
:10017000002104000D000D48002802D00C4814F0A6
:1001800031FA1BF0B1FB2000290014F02FFF14F00E
:1001900023FC00BF00000800F8FF0510000000006D
:1001A000494F0200800E001018A90010E54502001A
:1001B00000000000102300F007B8202300F004B86E
:1001C000302300F001B840239C46F0B404AE7546DD
:1001D000E80801D3EFF309860E4F0FCE0FC70FBC0F
:1001E0000FC74046494652465B460FC71DCE3100F9
:1001F000A60A00D304316E0900D248311FC7EFF3BD
:1002000009806946EFF3148663C76046014913F01D
:10021000CFFE00BFF86200101EF0040F0CBFEFF31A
:100220000880EFF30980816911F8021C91BB01B5C8
:1002300090E80F10E047BDE800508CE80300244B25
:1002400093E80600914208BF704741B91EF0100FB5
:1002500010D12049086820F0010008600AE02CE96C
:10026000F00F1EF0100F08BF2CED108AC1F838C037
:1002700081F822E01A6092F82210906B61F0FF0E74
:100280001EF0100F08BFB0EC108AB0E8F00F80F33A
:1002900009887047104A13689942FAD801B552F894
:1002A00021C00FC8E047BDE80050CCF800007047FF
:1002B00001B516F045F8BDE80140EFF3098CBEE743
:1002C00001B516F005F8BDE80140EFF3098CB6E77B
:1002D000CC03001034EF00E0A8E8020081F00041F8
:1002E00002E000BF83F0004330B54FEA41044FEA1B
:1002F000430594EA050F08BF90EA020F1FBF54EAB6
:10030000000C55EA020C7FEA645C7FEA655C00F051
:10031000E2804FEA5454D4EB5555B8BF6D420CDD22
:100320002C4480EA020281EA030382EA000083EAA5
:10033000010180EA020281EA0303362D88BF30BD45
:1003400011F0004F4FEA01314FF4801C4CEA11319B
:1003500002D0404261EB410113F0004F4FEA0333FA
:100360004CEA133302D0524263EB430394EA050F85
:1003700000F0A780A4F10104D5F1200E0DDB02FAF4
:100380000EFC22FA05F2801841F1000103FA0EF288
:10039000801843FA05F359410EE0A5F120050EF14E
:1003A000200E012A03FA0EFC28BF4CF0020C43FA7F
:1003B00005F3C01851EBE37101F0004507D54FF08C
:1003C000000EDCF1000C7EEB00006EEB0101B1F5DC
:1003D000801F1BD3B1F5001F0CD349085FEA300022
:1003E0004FEA3C0C04F101044FEA445212F5800F2D
:1003F00080F09A80BCF1004F08BF5FEA500C50F1CA
:10040000000041EB045141EA050130BD5FEA4C0CAC
:10041000404141EB010111F4801FA4F10104E9D135
:1004200091F0000F04BF01460020B1FA81F308BF2C
:100430002033A3F10B03B3F120020CDA0C3208DDF8
:1004400002F1140CC2F10C0201FA0CF021FA02F1D3
:100450000CE002F11402D8BFC2F1200C01FA02F143
:1004600020FA0CFCDCBF41EA0C019040E41AA2BF68
:1004700001EB0451294330BD6FEA04041F3C1CDA30
:100480000C340EDC04F11404C4F1200220FA04F050
:1004900001FA02F340EA030021FA04F345EA0301FA
:1004A00030BDC4F10C04C4F1200220FA02F001FABC
:1004B00004F340EA0300294630BD21FA04F029463E
:1004C00030BD94F0000F83F4801306BF81F48011D7
:1004D0000134013D4EE77FEA645C18BF7FEA655C4A
:1004E00029D094EA050F08BF90EA020F05D054EA1C
:1004F000000C04BF1946104630BD91EA030F1EBF21
:100500000021002030BD5FEA545C05D14000494124
:1005100028BF41F0004130BD14F580043CBF01F517
:10052000801130BD01F0004545F0FE4141F47001FD
:100530004FF0000030BD7FEA645C1ABF19461046D8
:100540007FEA655C1CBF0B46024650EA013406BFD9
:1005500052EA033591EA030F41F4002130BD00BF98
:1005600090F0000F04BF0021704730B54FF4806455
:1005700004F132044FF000054FF0000150E700BFD6
:1005800090F0000F04BF0021704730B54FF4806435
:1005900004F1320410F0004548BF40424FF0000122
:1005A0003EE700BF42004FEAE2014FEA31014FEA65
:1005B00002701FBF12F07F4393F07F4F81F06051B4
:1005C000704732F07F4208BF704793F07F4F04BFFF
:1005D00041F40021704730B54FF4607401F00045DC
:1005E00021F000411CE700BF50EA010208BF70473C
:1005F00030B54FF000050AE050EA010208BF70472D
:1006000030B511F0004502D5404261EB41014FF495
:10061000806404F132045FEA915C3FF4D8AE4FF09D
:1006200003025FEADC0C18BF03325FEADC0C18BF80
:10063000033202EBDC02C2F1200300FA03FC20FAD1
:1006400002F001FA03FE40EA0E0021FA02F114441E
:10065000BDE600BF70B54FF0FF0C4CF4E06C1CEA37
:1006600011541DBF1CEA135594EA0C0F95EA0C0FA8
:1006700000F0DEF82C4481EA030621EA4C5123EA1B
:100680004C5350EA013518BF52EA033541F480114A
:1006900043F4801338D0A0FB02CE4FF00005E1FBFD
:1006A00002E506F00042E0FB03E54FF00006E1FB47
:1006B00003569CF0000F18BF4EF0010EA4F1FF048A
:1006C000B6F5007F64F5407404D25FEA4E0E6D41CA
:1006D00046EB060642EAC62141EA55514FEAC520DB
:1006E00040EA5E504FEACE2EB4F1FD0C88BFBCF557
:1006F000E06F1ED8BEF1004F08BF5FEA500E50F108
:10070000000041EB045170BD06F0004646EA0101CD
:1007100040EA020081EA0301B4EB5C04C2BFD4EBFF
:100720000C0541EA045170BD41F480114FF0000EF8
:10073000013C00F3AB8014F1360FDEBF002001F066
:10074000004170BDC4F10004203C35DA0C341BDCE0
:1007500004F11404C4F1200500FA05F320FA04F0B2
:1007600001FA05F240EA020001F0004221F00041E6
:1007700010EBD37021FA04F642EB06015EEA430E59
:1007800008BF20EAD37070BDC4F10C04C4F1200589
:1007900000FA04F320FA05F001FA04F240EA02003C
:1007A00001F0004110EBD37041F100015EEA430E0D
:1007B00008BF20EAD37070BDC4F1200500FA05F22D
:1007C0004EEA020E20FA04F301FA05F243EA0203AC
:1007D00021FA04F001F0004121FA04F220EA0200BB
:1007E00000EBD3705EEA430E08BF20EAD37070BD01
:1007F00094F0000F0FD101F00046400041EB0101E1
:1008000011F4801F08BF013CF7D041EA060195F0C2
:10081000000F18BF704703F00046520043EB03037C
:1008200013F4801F08BF013DF7D043EA0603704769
:1008300094EA0C0F0CEA135518BF95EA0C0F0CD074
:1008400050EA410618BF52EA4306D1D181EA0301BA
:1008500001F000414FF0000070BD50EA410606BFB4
:100860001046194652EA430619D094EA0C0F02D1F9
:1008700050EA013613D195EA0C0F05D152EA03363E
:100880001CBF104619460AD181EA030101F000415C
:1008900041F0FE4141F470014FF0000070BD41F0A5
:1008A000FE4141F4780170BD70B54FF0FF0C4CF47F
:1008B000E06C1CEA11541DBF1CEA135594EA0C0F9E
:1008C00095EA0C0F00F0A7F8A4EB050481EA030EEB
:1008D00052EA03354FEA013100F088804FEA0333D2
:1008E0004FF0805545EA131343EA12634FEA0222A0
:1008F00045EA111545EA10654FEA00260EF0004161
:100900009D4208BF964244F1FD0404F5407402D2B2
:100910005B084FEA3202B61A65EB03055B084FEA43
:1009200032024FF480104FF4002CB6EB020E75EB40
:10093000030E22BFB61A754640EA0C005B084FEA68
:100940003202B6EB020E75EB030E22BFB61A7546E5
:1009500040EA5C005B084FEA3202B6EB020E75EB30
:10096000030E22BFB61A754640EA9C005B084FEAA8
:100970003202B6EB020E75EB030E22BFB61A7546B5
:1009800040EADC0055EA060E18D04FEA051545EAA4
:1009900016754FEA06164FEAC30343EA52734FEA4D
:1009A000C2025FEA1C1CC0D111F4801F0BD141EAC6
:1009B00000014FF000004FF0004CB6E711F4801F2B
:1009C00004BF01430020B4F1FD0C88BFBCF5E06F0B
:1009D0003FF6AFAEB5EB030C04BFB6EB020C5FEA1B
:1009E000500C50F1000041EB045170BD0EF0004E70
:1009F0004EEA113114EB5C04C2BFD4EB0C0541EAA2
:100A0000045170BD41F480114FF0000E013C90E69E
:100A100045EA060E8DE60CEA135594EA0C0F08BF62
:100A200095EA0C0F3FF43BAF94EA0C0F0AD150EA61
:100A300001347FF434AF95EA0C0F7FF425AF1046F4
:100A400019462CE795EA0C0F06D152EA03353FF41C
:100A5000FDAE1046194622E750EA410618BF52EA99
:100A600043067FF4C5AE50EA41047FF40DAF52EA6D
:100A700043057FF4EBAE12E74FF0FF3C06E000BF0A
:100A80004FF0010C02E000BF4FF0010C4DF804CD17
:100A90004FEA410C7FEA6C5C4FEA430C18BF7FEAD7
:100AA0006C5C1BD001B050EA410C0CBF52EA430C05
:100AB00091EA030F02BF90EA020F0020704710F185
:100AC000000F91EA030F58BF994208BF90422CBF14
:100AD000D8176FEAE37040F0010070474FEA410C0D
:100AE0007FEA6C5C02D150EA013C07D14FEA430C2B
:100AF0007FEA6C5CD6D152EA033CD3D05DF8040B9C
:100B0000704700BF8446104662468C4619466346CD
:100B100000E000BF01B5FFF7B7FF002848BF10F1A4
:100B2000000F01BD4DF808EDFFF7F4FF0CBF0120E9
:100B300000205DF808FB00BF4DF808EDFFF7EAFF65
:100B400034BF012000205DF808FB00BF4DF808ED20
:100B5000FFF7E0FF94BF012000205DF808FB00BF15
:100B60004DF808EDFFF7CEFF94BF012000205DF89F
:100B700008FB00BF4DF808EDFFF7C4FF34BF0120AC
:100B800000205DF808FB00BF4FEA410C7FEA6C5C77
:100B900002D150EA013C0AD14FEA430C7FEA6C5C77
:100BA00002D152EA033C02D14FF0000070474FF0EF
:100BB000010070474A0011D212F5001211D20DD572
:100BC0006FF47873B3EB62520ED44FEAC12343F053
:100BD000004343EA505323FA02F070474FF00000FD
:100BE000704750EA013002D14FF0FF3070474FF0AC
:100BF000000070474FEA4102B2F1E04324BFB3F571
:100C0000001CDCF1FE5C0DD901F0004C4FEAC00283
:100C10004CEA5070B2F1004F40EB830008BF20F067
:100C20000100704711F0804F21D113F13872BCBF21
:100C300001F00040704741F480114FEA5252C2F176
:100C40001802C2F1200C10FA0CF320FA02F018BFBF
:100C500040F001004FEAC1234FEAD32303FA0CFC12
:100C600040EA0C0023FA02F34FEA4303CCE77FEAA1
:100C7000625307D150EA01331EBF4FF0FE4040F4EB
:100C80004000704701F0004040F0FE4040F400009A
:100C9000704700BF53B94AB9002908BF00281CBFDC
:100CA0004FF0FF314FF0FF3000F074B9ADF1080C98
:100CB0006DE904CE00F006F8DDF804E0DDE902237A
:100CC00004B070472DE9F047089E04468846002B83
:100CD00040F085808A42154648D9B2FA82F24AB17C
:100CE000C2F1200701FA02F320FA07F7954047EA1C
:100CF000030894404FEA154E230CB8FBFEF71FFA89
:100D000085FC0EFB178843EA084307FB0CF1994268
:100D100009D9EB1807F1FF3080F0E380994240F2E7
:100D2000E080023F2B445B1AA4B2B3FBFEF00EFB43
:100D3000103344EA034400FB0CFCA44509D92C19E8
:100D400000F1FF3380F0CB80A44540F2C880023828
:100D50002C4440EA0740A4EB0C0400271EB1D44009
:100D60000023C6E900433946BDE8F087002A53D086
:100D7000B2FA82F2002A40F0B680491B4FEA154EC3
:100D80001FFA85F80127B1FBFEFC230C0EFB1C119A
:100D900043EA014308FB0CF1994207D9EB180CF127
:100DA000FF3002D2994200F2EC808446591AA3B275
:100DB000B1FBFEF00EFB101443EA044408FB00F8FC
:100DC000A04507D92C1900F1FF3302D2A04500F24B
:100DD000DC801846A4EB080440EA0C40BEE78B42D6
:100DE00008D9002E78D00027C6E9000138463946D8
:100DF000BDE8F087B3FA83F77FB98B4202D3824212
:100E000000F2BD80841A61EB030301209846002E96
:100E1000A9D0C6E90048A6E7FFDEC7F12005BB4020
:100E200022FA05FC4CEA030C01FA07F420FA05F853
:100E300021FA05F34FEA1C4E48EA0404B3FBFEF91D
:100E4000210C0EFB19331FFA8CF841EA034309FB0E
:100E500008FA9A4502FA07F200FA07F10BD91CEBDF
:100E6000030309F1FF3080F088809A4540F28580C5
:100E7000A9F102096344A3EB0A03A4B2B3FBFEF099
:100E80000EFB103344EA034400FB08F8A04508D9E0
:100E90001CEB040400F1FF336BD2A04569D9023882
:100EA000644440EA0940A4EB0804A0FB02894C45D5
:100EB000C6464B4654D351D0002E69D0B1EB0E023A
:100EC00064EB030404FA05F522FA07F3FC401D4322
:100ED000C6E90054002746E73746304643E7184640
:100EE00037E707461FE7C2F1200320FA03F79540D2
:100EF00001FA02F021FA03F34FEA154E3843010CD0
:100F0000B3FBFEF71FFA85F80EFB173341EA0341E6
:100F100007FB08F38B4204FA02F407D9691807F1BA
:100F2000FF3C28D28B4226D9023F2944CB1A81B2FA
:100F3000B3FBFEF00EFB103341EA034100FB08F364
:100F40008B4207D9691800F1FF3C10D28B420ED9B1
:100F500002382944C91A40EA074714E74145ABD291
:100F6000B8EB020E69EB0C0201381346A4E76046A9
:100F7000F0E7184695E76746D8E781467BE73846AD
:100F800045E7ACF1020C2B4410E702382C4421E772
:100F90003746E8E6704700BF034613F8012B002AE6
:100FA000FBD1181A013870472DE9F843B5EEC00A95
:100FB000F1EE10FA2DED028B0F4605464CBF23498A
:100FC00023492448DFF89080B0EE408AF0EEC08AD2
:100FD00001F013FC013D2C4600264FF00A09621C6B
:100FE0001DD0B542D4BF002301230022D1B2A142BB
:100FF00002F1010202DA09FB03F3F7E707EE903A88
:10100000F8EE677A0136F4EEE87AF1EE10FA04F1C0
:10101000FF3404DD41460F4801F0EFFBDFE7B5EE9A
:10102000C08AF1EE10FA4ABFF1EE487A18EE100AC3
:1010300017EE900AFFF7B6FABDEC028B41EC100BED
:1010400039460448BDE8F84301F0FEBC59C002002F
:10105000A1E202008816001082CD020070B5194C82
:1010600019491A4E05460435204601F0C6FB2846AC
:1010700000F0E6F902210520FFF796FF31462046F1
:1010800001F0BBFB1249204601F0B7FB284600F0F7
:10109000DBF902210520FFF787FF3146204601F0EA
:1010A000ACFB0C49204601F0A8FB284600F0D0F923
:1010B00005200221FFF778FF2046BDE8704001F0CF
:1010C000A3BB00BF8816001047C00200A0E20200C8
:1010D0004DC0020053C002007FB50C4800F000FA7A
:1010E00060B10A49684600F041F90948FFF7B6FFC8
:1010F0001E2007B05DF804EB01F032BD054906483B
:1011000001F08AFB4FF4FA70F3E700BFA00E001065
:101110009C0E00105BC0020088160010014800F011
:1011200093BA00BF9C0E001070B54FF4E131164821
:10113000164C174D01F061FD154801F06FF9154986
:10114000134801F03BF9261DFF23012229460F48D1
:1011500000F0FEFB10490C4801F04BFB102130461B
:1011600000F07AF90146084801F056FB94F8503037
:1011700043B10A49044801F04FFB4FF4FA7001F003
:10118000EFFCE1E770BD00BF881600109C0E001058
:10119000040F0010801A06006CC0020094C0020008
:1011A000F8B507460D461646C3B15C6D93F8581066
:1011B000A4B123682046DB6A9847236839461B6838
:1011C000204698472368F2B29B6C294620469847F0
:1011D000236820465B6B98470020F8BD0320FCE79E
:1011E0002DE9F0410746884616463BB35C6D93F8FF
:1011F00058501CB323682946DB6A20469847236869
:1012000039461B6820469847236800211B6B2046FF
:10121000984723683246DB6B29462046984786422A
:101220000FD10025EFB2BE4205F101050BD92368AD
:1012300020465B69984708F80700F3E70320BDE8FC
:10124000F0810620FBE70020F9E70078704700787E
:10125000704710B54FF4206304468380083000F0D7
:10126000C5FB84F84C00204610BDF8B51D46037937
:1012700004460F467BB11046561CB847014620B1C4
:10128000206801F0BEFA3246F5E725B12068BDE8D6
:10129000F84001F0B9BAF8BD0A4600230149FFF74A
:1012A000E4BF00BF4F1201000A4601230149FFF7C6
:1012B000DCBF00BF4B12010003791BB10A2200689A
:1012C00001F0F4BA704700000F292AD8DFE801F0D6
:1012D000080B0D0F11131517191B1D1F212325278F
:1012E0001149FFF7D9BF1149FBE71149F9E7114946
:1012F000F7E71149F5E71149F3E71149F1E711491A
:10130000EFE71149EDE71149EBE71149E9E7114929
:10131000E7E71149E5E71149E3E71149E1E7114939
:10132000DFE71149DDE700BF40C302004DC3020003
:101330005BC302006BC302007BC3020084C30200D4
:1013400093C30200A2C30200B7C3020011C402008B
:1013500032C4020049C4020069C4020082C402000F
:101360009AC40200B3C40200C8C4020070B50C469F
:1013700001F134050646294604F1080000F020FF7B
:1013800004F84C0F2B4635461A4603CAA242286081
:101390006960134605F10805F6D1304670BD0000BE
:1013A00008B590F8483003F0030307EE901A032BBA
:1013B00031D8DFE803F002121C26F8EEE77A17EEC8
:1013C000900AFFF7EFF816A3D3E90023FFF76CFAB2
:1013D000FFF710FC00EE100A08BDF8EEE77A17EEF2
:1013E000900AFFF7DFF810A3D3E90023EEE7F8EE49
:1013F000E77A17EE900AFFF7D5F80DA3D3E900239B
:10140000E4E7F8EEE77A17EE900AFFF7CBF80AA3C5
:10141000D3E90023DAE70020DCE700BFAFF3008068
:10142000FCA9F1D24D623040FCA9F1D24D622040BE
:10143000FCA9F1D24D621040FCA9F1D24D620040EE
:10144000B0F93410FFF7ACBFB0F93610FFF7A8BF02
:10145000B0F93810FFF7A4BF102908BF90F84C105E
:101460000F299ABF024B53F821000248704700BF72
:10147000A4C00200C8C4020010B50446083000F041
:101480009CFB84F84C0010BD10B50446083000F0F9
:10149000AEFB84F84C0010BD10B50446083000F0D7
:1014A000C1FB84F84C0010BD10B50446083000F0B4
:1014B000E5FB84F84C0060B107492046FFF7ECFEDD
:1014C00094F84C102046FFF7FFFE04492046FFF732
:1014D000EBFE94F84C0010BD5DC60200A8E10200CE
:1014E00010B50446083000F0DAFB84F84C00B0FA7E
:1014F00080F0400910BD10B50446083000F0E4FB50
:1015000084F84C00012001F02BFB94F84C0010BD36
:1015100010B50446083000F034FC84F84C0010BDCF
:1015200013B5ADF804200446019A083000F096FC8B
:1015300084F84C0002B010BD10B50446083000F02D
:10154000FAFC84F84C0010BD10B50446083000F0D9
:101550005CFD84F84C0010BD10B50446083000F066
:1015600070FD84F84C0010BD10B50446083000F042
:10157000A4FD84F84C0010BD10B588B004469DF859
:10158000400006909DF83C0005909DF838000490BE
:101590009DF8340003909DF8300002909DF82C00D7
:1015A00001909DF82800009004F1080000F0A0FDD3
:1015B00084F84C0008B010BD13B504468DF8073010
:1015C00008300DF1070300F0E4FA84F84C0002B093
:1015D00010BD000013B5002304468DF80730083015
:1015E0000DF1070300F0E0FA84F84C0060B10849FF
:1015F0002046FFF751FE94F84C102046FFF764FE9A
:1016000004492046FFF750FE9DF8070002B010BDC8
:10161000D7C40200A8E102000A460C21FFF7DABF96
:1016200010B513780A460C210446FFF7C5FF84F86D
:101630004C0010BD10B5012332220C210446FFF7E7
:10164000BBFF84F84C0010BD10B504460430FFF712
:1016500000FE024B2360204610BD00BF54C70200AD
:10166000F8B500210446FFF7D7FF94F84C50064622
:10167000B5B126492046FFF70FFE31462046FFF759
:101680001BFE23492046FFF707FE94F84C10204626
:10169000FFF71AFE1F492046FFF706FE2846F8BD51
:1016A00001212046FFF7B8FF94F84C5007468DB152
:1016B00016492046FFF7F0FD31462046FFF7FCFDB6
:1016C00015492046FFF7E8FD39462046FFF7F4FDAF
:1016D0001249D7E7482E01D10928DFD00B4920460F
:1016E000FFF7DAFD31462046FFF7E6FD0A492046BE
:1016F000FFF7D2FD39462046FFF7DEFD04250849F5
:101700002046FFF7D1FD84F84C50C7E78FC6020092
:10171000AFC60200A8E10200D7C60200F1C602006F
:1017200018C7020070B504468AB00E460021FFF7C4
:101730000BFF01212046FFF70FFF2046FFF77AFF3E
:1017400000256379AB420CD901352046EDB2FFF795
:1017500087FF30B12046FFF707FF0A2001F000FAAB
:10176000EFE76379AB4211D129492046FFF794FD99
:1017700061792046FFF7A0FD26492046FFF794FD3A
:10178000042584F84C5028460AB070BD22492046F2
:10179000FFF782FD29462046FFF78EFD012D0CBF85
:1017A0001E491F492046FFF77FFD36B11D492046DF
:1017B000FFF77AFD94F84C50E5E7082309AA312198
:1017C00020468DF82430FFF72BFF054660B11649FF
:1017D0002046FFF761FD29462046FFF775FD1349B6
:1017E0002046FFF761FDCCE70123CDE90133092352
:1017F0000093CDE90566CDE9036610230C2231463E
:101800002046FFF7B9FE05460028D3D00849DFE798
:101810001DC5020025C702005FC502009BC502006E
:10182000A0C50200A7C50200E1C50200A8E10200B0
:1018300015C6020073B504460E46FFF735FE054691
:1018400080B137492046FFF727FD29462046FFF79C
:101850003BFD34492046FFF727FD84F84C502846CD
:1018600002B070BD2046FFF707FE054608B12E49BD
:10187000E8E7322001F074F929462046FFF704FE1C
:10188000054608B12949DDE701462046FFF704FE79
:10189000054608B12649D5E731462046FFF742FF05
:1018A000054608B12349CDE736B123492046FFF765
:1018B000FBFC94F84C50D2E7024603212046FFF788
:1018C0001AFE054608B11D49BCE74FF0000203218E
:1018D0002046FFF71DFE054608B11949B2E740F260
:1018E0000773ADF80430019A03212046FFF718FE74
:1018F000054608B11349A5E7024601212046FFF736
:101900001BFE054608B110499CE700220221204633
:10191000FFF712FE05460028CBD00C4992E700BF26
:1019200014C10200A8E1020042C1020070C102001D
:101930009CC10200CBC1020005C202003AC20200F3
:101940006EC20200A1C20200D2C2020009C302009C
:1019500038B5044680F85930416580F85A20C2BB3A
:101960006822FF2B84F8582003D00121184601F08B
:10197000A7F894F85900FF2803D094F85A1001F002
:10198000D1F8154BE365154BC4E9183404F15C0339
:10199000E360134B0021251DC4E904312176C4E91D
:1019A0000711C4E909112846FFF744FF84F85000E5
:1019B00060B10C492846FFF76FFC94F85010284698
:1019C000FFF782FC08492846FFF76EFC94F85000A8
:1019D00038BD6922C5E700BFA1110100E111010076
:1019E0000000FFFFE4C00200A8E1020008B52C22BD
:1019F00000211AF031F804228271002008BD30B4B1
:101A00000D4611461A4603681C6824B12846A446B0
:101A10009B6830BC6047022030BC704730B40D4634
:101A200011461A4603685C6824B12846A4469B68A0
:101A300030BC6047022030BC7047032907B511D87D
:101A400082798A4210D08171090101F030018DF84C
:101A5000071001230DF107027F21FFF7D0FF03B02C
:101A60005DF804FB0320FAE70020F8E72DE9F043D6
:101A700085B099469DF834808DF80620B8F1000FA6
:101A800014BF6FF07F030023194304468DF807103D
:101A90000321FFF7D2FF01230DF107021321204696
:101AA000FFF7ADFF00286FD103212046FFF7C5FFE8
:101AB00001230DF1060214212046FFF7A0FF0028A4
:101AC00062D19DF808309DF838209DF8307003F001
:101AD000200382F0010263F07F0362F345138DF867
:101AE00008300546BFB2ABB2BB424DD2B8F1000FD1
:101AF0003DD003212046FFF7A0FF012302AA1521B4
:101B00002046FFF77CFF00283ED1064600212046F4
:101B1000FFF793FF012303AA17212046FFF77EFF5B
:101B20009DF80C3040F2E7311A46C3F380138E4221
:101B300088BF43F00103DB0706F10106E6D5C2F3D7
:101B400000138E4294BF1E4643F00106FEB9B8F161
:101B5000000F0AD003212046FFF76FFF012309EB96
:101B6000050217212046FFF759FF0135BBE7032186
:101B70002046FFF762FF012309EB050216212046EC
:101B8000FFF73DFF0028B4D005B0BDE8F083012089
:101B9000FAE730B585B001240025CDE90154009461
:101BA000FFF764FF05B030BD1FB50124CDE9014446
:101BB0000094FFF75BFF04B010BD13B5044600218D
:101BC000FFF73BFF012301AA06212046FFF726FF6E
:101BD00058B99DF8043043F080038DF8043001AA11
:101BE000012306212046FFF70AFF02B010BD37B5DA
:101BF00004460D460021FFF720FF012301AA06211C
:101C00002046FFF70BFF58B99DF8043065F38613A3
:101C10008DF8043001AA012306212046FFF7EFFECC
:101C200003B030BD37B504460D460021FFF705FF70
:101C3000012301AA06212046FFF7F0FE58B99DF8BE
:101C4000043065F345138DF8043001AA0123062101
:101C50002046FFF7D4FE03B030BD70B505460C46F4
:101C600051B10021FFF7E9FE224628460123002159
:101C7000BDE87040FFF7D2BE032070BD07B500235A
:101C80000DF107018DF80730FFF7E7FF20B99DF848
:101C90000730EA2B18BF042003B05DF804FB13B52E
:101CA00000210446FFF7C9FE60B9012301AA1A21E9
:101CB0002046FFF7B3FE28B99DF8043013F0010F5A
:101CC00008BF062002B010BD11F0130F2DE9F3413B
:101CD00006460C46154652D00021FFF7AEFE0028FE
:101CE0004AD1012301AA05213046FFF797FE0028BB
:101CF00042D114F001081EBF9DF8043065F345136E
:101D00008DF8043014F002071EBF9DF8043065F30F
:101D100004138DF8043014F010041EBF9DF8043035
:101D200065F386138DF8043001AA0123052130469E
:101D3000FFF765FE00BB012301AA05213046FFF72E
:101D40006DFEC8B9B8F1000F06D09DF80400C0F3CD
:101D50004010401B18BF012037B19DF80430C3F379
:101D60000013AB4218BF012034B19DF80430C3F317
:101D70008013AB4218BF012002B0BDE8F0810720FC
:101D8000FAE711F0030F2DE9F3410746884663D0C7
:101D900011F00104C2F381062BD0022102F00305E9
:101DA000FFF74BFE0123044601AA14213846FFF732
:101DB00035FE9DF8043065F3420304438DF804308A
:101DC00001AA012314213846FFF719FEE4B20443A7
:101DD000012301AA14213846FFF720FE9DF80430A4
:101DE000E4B20443C3F34103E4B2AB4218BF44F08E
:101DF000010418F0020F2BD002213846FFF71DFE18
:101E000001231946054601AA3846FFF707FE9DF84B
:101E1000043066F3420328438DF804300123194649
:101E2000044301AA3846FFF7EAFDE4B20123044364
:101E3000194601AA3846FFF7F1FD9DF80430E4B2D7
:101E4000C3F341030443B342E4B201D044F00104BC
:101E5000204602B0BDE8F0810724F9E72DE9FF41F3
:101E6000ADF804208A0707460D4662D011F0010440
:101E70009DF805602BD002219DF80480FFF7DDFD61
:101E80000123044603AA14213846FFF7C7FD9DF835
:101E90000C3068F3C50304438DF80C3003AA01230A
:101EA00014213846FFF7ABFDE4B20443012303AA33
:101EB00014213846FFF7B2FD9DF80C30E4B204431C
:101EC000C3F3C203E4B2434518BF44F00104AB07B7
:101ED0002BD502213846FFF7B0FD012319460546F0
:101EE00003AA3846FFF79AFD9DF80C3066F3C50348
:101EF00028438DF80C3001231946044303AA3846C1
:101F0000FFF77DFDE4B201230443194603AA3846D6
:101F1000FFF784FD9DF80C30E4B2C3F3C203044321
:101F2000B342E4B201D044F00104204604B0BDE85D
:101F3000F0810724F9E7F7B516468A0705460F46EC
:101F400061D011F001042BD00221FFF776FD0123AF
:101F5000044601AA14212846FFF760FD9DF80430CD
:101F600066F3000304438DF8043001AA0123142111
:101F70002846FFF744FDE4B20443012301AA1421DB
:101F80002846FFF74BFDE4B20443E4B29DF8043069
:101F900026B1DB0704D444F0010401E0D807FAD4E9
:101FA000B9072DD502212846FFF747FD0123194621
:101FB000074601AA2846FFF731FD9DF8043066F375
:101FC000000338438DF8043001231946044301AA65
:101FD0002846FFF714FDE4B201230443194601AA81
:101FE0002846FFF71BFDE4B20443E4B29DF8043039
:101FF00026B1DA0704D444F0010401E0DB07FAD487
:10200000204603B0F0BD0724FAE737B50D4600219E
:102010000446FFF712FD90B9012301AA0F212046C3
:10202000FFF7FCFC58B99DF8043065F341038DF8C7
:10203000043001AA01230F212046FFF7E0FC03B082
:1020400030BD37B50D4600210446FFF7DEFF90BBDB
:1020500003212046FFF7F1FC68BB01236A461946BD
:102060002046FFF7DBFC30BB9DF8003023F01F0358
:1020700043F017038DF8003001236A4619462046C5
:10208000FFF7BDFCB8B901462046FFF7D6FC90B972
:10209000012301AA03212046FFF7C0FC58B99DF88F
:1020A000043065F345138DF8043001AA01230321A0
:1020B0002046FFF7A4FC03B030BD13B50021044651
:1020C000FFF7BBFC90B9012301AA03212046FFF7CB
:1020D000A5FC58B99DF8043043F002038DF8043094
:1020E00001AA012303212046FFF789FC02B010BD9D
:1020F0002DE9F04F85B003290446934698469DF894
:102100003C6053D82A4B13F801A02A4B5F5C2A4B42
:102110005D5C2A4B13F801900321FFF78EFC002829
:1021200041D19DF804306BF3060366F3C7138DF8B5
:10213000043001AA012351462046FFF760FC90BB02
:1021400056B99DF850308DF80C3003AA012349464A
:102150002046FFF754FC30BB012302AA3946204633
:102160008DF80880FFF74BFCE8B99DF80C309DF81E
:10217000382062F303039DF8402062F3C7139DF8F3
:10218000442062F345139DF8482062F304139DF840
:102190004C2062F386138DF80C3003AA01232946E4
:1021A0002046FFF72CFC05B0BDE8F08F0320FAE7CE
:1021B00060C7020064C7020058C702005CC7020083
:1021C00070B506468AB00D46002900F08E800021C9
:1021D000FFF733FC1723044604AA2D213046FFF7EE
:1021E0001DFC9DF810209DF8113043EA02232B803E
:1021F0009DF812209DF8133043EA02236B809DF86E
:1022000014209DF8153043EA0223AB809DF8162078
:102210009DF8173043EA0223EB809DF818209DF8C3
:10222000193043EA02232B819DF81A209DF81B30B8
:1022300043EA02236B819DF81C209DF81D3043EA80
:1022400002236B829DF81E309DF820206B759DF84F
:102250001F3043EA0223AB819DF822209DF82130F4
:1022600043EA0223EB819DF824209DF8233043EAC2
:1022700002232B829DF82630AB75044302213046A1
:10228000FFF7DBFBE4B20443012301AA142130462B
:10229000FFF7C4FB9DF804302A7DC3F3410363F3C9
:1022A0000102E4B204432A7502213046FFF7C5FB60
:1022B000E4B201231946044302AA3046FFF7AEFBFD
:1022C0009DF808302A7DC3F3410363F38302E4B22F
:1022D00004432A75012303AA15213046FFF79EFB0C
:1022E000E4B22043C0B20AB070BD0320FBE7002077
:1022F00070477047006910B10368DB681847704782
:1023000049000023C161C0F82C32704703680121E5
:102310001B6B184710B403689C6B0123A4465DF83F
:10232000044B6047D0F82C32B3F5807F1FBF5A1C96
:10233000C0F82C22C01880F82C1114BF01200020F6
:102340007047D0F8280170477047C0F830127047C6
:10235000C0F8341270470346D0F82801A8B1D3F86A
:10236000282182B1D3F824211A4492F82000D3F80E
:1023700024210132D2B2C3F82421D3F82821013A12
:10238000C3F8282170474FF0FF307047D0F828314C
:102390002BB1D0F82431184490F8200070474FF04A
:1023A000FF30704710B5044B0360044600F50E7013
:1023B00014F026FD204610BD70C70200006908B168
:1023C00000F004BE704707B581F001010091D0F81C
:1023D0002C32C16900F59672006900F023FE0028D6
:1023E00014BF0220002003B05DF804FB38B5D0F81C
:1023F0002C3214461A44B2F5807F88BFC3F580742E
:10240000054600F596702246184419F017FBD5F8DA
:102410002C322344C5F82C32204638BD70B50369F0
:1024200004468BB9282012F0FBFA94F9141094F9A1
:102430001820054600F0BAFE2368256120469B6AF5
:102440000249BDE87040184770BD00BFA08601007A
:1024500070B5C2B083F00103009302AE0446154686
:10246000134649003246006900F0FCFDC8B9A84295
:1024700018D0D4F82831B3F5807F10D0D4F82031AB
:10248000325C234483F82020D4F820310133DBB2BE
:10249000C4F82031D4F828310133C4F82831013090
:1024A000E5E70025284642B070BD000073B54FF443
:1024B0007A730025C0E90153184B03600446C0E954
:1024C0000451826129464FF48072203019F0C4FA19
:1024D000134BC4F82051C4F838322946C4F82451AB
:1024E000C4E98B55C4F82851C4F83452C4F8485292
:1024F00004F51E7012F01CFE04F50E7604F5237030
:1025000012F0DAFC304600952B464FF48052182129
:1025100014F04AFC204602B070BD00BF70C7020034
:10252000F4E9020070B50D4C0D4E0E4D1B22192121
:102530002046FFF7BBFF20460B4C3246294612F0DF
:102540004FF82A222B212046FFF7B0FF32462946BA
:102550002046BDE8704012F043B800BF040F0010E1
:1025600000010010A5230100F81100101FB5C0687C
:102570000391036801220092DC6803A90DF10B03AB
:10258000A0479DF80B0004B010BDF8B5427A03686F
:1025900004460E46CFB29B680D0A62B93946984789
:1025A000236860F307069B6829462046984760F336
:1025B0000F26B0B2F8BD29469847236860F30F266E
:1025C0009B6839462046984760F30706F1E713B544
:1025D000C06803680092DC680B46A04702B010BDDB
:1025E00070477047C06810B103685B681847704750
:1025F000704700002DE9FF416F4687E80600C36879
:102600009DF804609DF8058004460D4613B90368E3
:10261000DB6A98476368AB4204D1BDF80420238984
:102620009A421ED0104B9D420BD902938DF80C603C
:102630008DF80D8004AB13E903000546CEB2C1F35B
:10264000072832460821E06800F079FE2946E06854
:1026500000F092FE8DF804608DF80580BB886560FF
:10266000238104B0BDE8F081006CDC0210B51421B8
:10267000044612F0EBF9204610BDC36837B5044696
:102680007BB9302012F0CCF94FF0FF3305460093B0
:1026900094F9102094F9123094F9111000F016FEFC
:1026A000E56003B030BD00000848094B036000231B
:1026B00043604FF48073038140F206730382054A3E
:1026C00005490523837411F08BBF00BFEC14001083
:1026D000C4C7020000010010F1250100704700008E
:1026E00013B5084C4FF0FF330093282227212046D2
:1026F00000F0A2FB044A0549204602B0BDE81040A4
:1027000011F06EBF0015001000010010D92D01005E
:1027100030B5084B084A1B780021CCB2A34207D938
:102720005578854201F1010102F10C02F5D12346F1
:10273000184630BDF8C7020004010010054B1B7895
:10274000834281BF0C234343034AD05698BF4FF0C6
:10275000FF307047F8C70200040100102DE9F8436C
:1027600006460D46071D00F10709002417F8011B56
:102770000A22284600F0A9F82E218046284600F0BB
:1027800040F84F4540440444F0D10A22F1792846EC
:1027900000F09BF82044BDE8F8830000024B034A98
:1027A0001A6000225A6070476416001004C80200C4
:1027B000F8B505460E4617460024BC4207D02B68E4
:1027C000315D1B682846984708B10134F5E720467B
:1027D000F8BD70B505460C46084649B1FEF7DCFB6E
:1027E0002B680246214628465B68BDE870401847C2
:1027F00070BD08B5FFF7EDFF08BD08B5FFF7E9FFAD
:1028000008BD03681B68184708B50249FFF7E1FFD8
:1028100008BD00BF0FE5020038B50546FFF7D9FF38
:1028200004462846FFF7F0FF204438BD70B58AB053
:1028300000238DF82430012A98BF0A2209ACB1FB8D
:10284000F2F502FB1516F3B2092E94BF303337337D
:10285000DBB28A4204F8013D04D92146FFF7B9FFF3
:102860000AB070BD2946EAE72DE9F04107460E4659
:1028700015462AB90368C9B21B68BDE8F04118477C
:102880000A2A05D1002905DBBDE8F041FFF7CEBFDC
:10289000D2B2F9E72D21FFF7B4FF2A460446714270
:1028A0003846FFF7C3FF2044BDE8F081FFF7DCBFE7
:1028B00010B42AB903685DF8044B1B68C9B2184705
:1028C000D2B25DF8044BFFF7B1BFFFF7F1BF0000D4
:1028D0002DE9F84F55EC104B0F1E064610EE102A4E
:1028E0002B4610EE100A2946B8BF0227FEF74CF916
:1028F00038B14C493046FFF76CFF82465046BDE880
:10290000F88F25F000494FF0FF32474B20464946EB
:10291000FEF73AF948B94FF0FF32434B204649469B
:10292000FEF714F908B94149E4E74FF06042404B23
:1029300020462946FEF71EF908B13E49DAE74FF076
:1029400060423D4B20462946FEF7F6F80028F4D1B8
:102950000022002320462946FEF7EEF8D0B12D21B3
:102960003046FFF74EFF05F1004382461D463349CE
:10297000DFF8D0904FF0000B00204FF000085FFA16
:102980008BF3BB420BF1010B06DA42464B46FDF7D7
:102990008BFFF4E78246EAE702460B4620462946CB
:1029A000FDF7A2FC0D460446FEF704F98046FDF74C
:1029B000D7FD02460B4620462946FDF793FC0A2226
:1029C00004460D4630464146FFF730FF824427B1AA
:1029D0001B493046FFF7FDFE8244DFF868904FF058
:1029E000000817F1FF3789D34B4642462046294657
:1029F000FDF730FE0D460446FEF7DCF80A220146DC
:102A000083463046FFF712FF82445846FDF7A8FD83
:102A100002460B4620462946FDF764FC04460D4657
:102A2000DFE700BF08C80200FFFFEF7F0CC802000D
:102A3000FFFFEF4110C80200FFFFEFC10000E03FC1
:102A4000A2C0020000002440FFF742BF2DE9F04180
:102A50001A4E0C2202FB0062054694680F4664B9C8
:102A6000FFF76CFE8046082011F0DAFF0023C0E972
:102A700000334146044610F0D2FE0C2303FB0565EB
:102A8000012FAC6010D037B1022F12D0204600F0D9
:102A900052FA202103E0204600F04DFA082120469A
:102AA000BDE8F04100F054BA2046BDE8F04100F026
:102AB00035BA204600F03FFA1021F0E7040100107B
:102AC00010B50C46FFF724FE044B1B78834204D05C
:102AD0002146BDE81040FFF7B9BF10BDF8C702009E
:102AE0000F4BF7B50C2505FB00350E46AC6884B9D5
:102AF000FFF724FE0746082011F092FF0023C0E9EB
:102B000000330446009608230122394610F0A4FE43
:102B1000AC603146204603B0BDE8F04014F0AEBAD8
:102B20000401001010B50C46FFF7F2FD044B1B78B2
:102B3000834204D02146BDE81040FFF7D1BF10BD4D
:102B4000F8C7020000F006B810B5044600F046FED3
:102B5000204610BD014800F04BBE00BF70160010AB
:102B600014F0DCB810B5054C204600F0B1FE20464C
:102B7000034A0449BDE8104011F032BD7016001040
:102B800000010010492B010000207047036801225A
:102B90001B6900211847036800221B69114618476A
:102BA0006FF01500704700290CBF6FF0180000206F
:102BB0007047012070476FF0150070476FF01500E7
:102BC000704784B001A880E80E0004B070476FF031
:102BD0001C0070476FF01C0070476FF015007047C5
:102BE0006FF01500704701207047012070470020EA
:102BF00070470020704701207047036840F213427D
:102C00001B6A18477047D0F86001704707B5036822
:102C10008DF807105B6801220DF10701984703B09A
:102C20005DF804FBD0F860312BB1D0F85C3118446A
:102C300090F8580070474FF0FF307047D0F860317F
:102C40008BB1D0F85C31034493F85820D0F85C3154
:102C50000133DBB2C0F85C31D0F86031013BC0F821
:102C60006031104670474FF0FF30704702F00F039D
:102C7000013B9BB22DE9F043042B044610469CBF58
:102C80002C4AD75C00F0F00388BF0027202B8BB0C4
:102C90000D4647D0302B0CBF4FF002084FF0010813
:102CA00000F47060B0F5007F3FD0B0F5407F3ED0BB
:102CB000B0F5807F0CBF0526082616F0BFFD1E4B21
:102CC000029093F82C006FF3041083F82C0003F5A6
:102CD000805304F1100993F82C006FF3041083F86B
:102CE0002C00029816F0AEFD2946484600F02AFC5A
:102CF00043463A463146484600F037FC03940F4BB2
:102D000004930024059403AA07CA06AB83E80700CE
:102D10000B4A019400920ECB484600F05FFC0BB0CA
:102D2000BDE8F0834FF00208BAE70626C5E707269C
:102D3000C3E700BF48C8020000C00140692D010080
:102D4000B92D010070B50D46164600F1100420465D
:102D500000F033FC0028FAD032462946204600F025
:102D600078FE20EAE07070BD37B5044600F110052A
:102D7000284600F011FCE8B101220DF107012846B8
:102D800000F08EFED4F86031B3F5807FF0D0D4F837
:102D900058319DF80720234483F85820D4F858313F
:102DA0000133DBB2C4F85831D4F860310133C4F8D0
:102DB0006031DDE703B030BD10B4D0E90134016803
:102DC0006210E40701EB020048BF8A585DF8044B2B
:102DD00048BFD3581847000010B5054B0360054B9A
:102DE000044640F8103F00F03FFC204610BD00BFF5
:102DF00058C80200D8CA0200A0F11000FFF7ECBFCB
:102E0000A0F15400FFF7E8BF10B50446FFF7E4FF58
:102E100020464FF4B27111F019FE204610BDA0F10A
:102E20005400FFF7F1BFA0F11000FFF7EDBF000065
:102E300000487047DC16001038B500254FF47A734F
:102E4000C0E901530F4B044640F8103B4FF41653B2
:102E500000F03EFE0C4B03F10802226003F1440235
:102E60007833226163654FF48072294604F158007B
:102E700018F0F2FDC4F858512046C4F85C51C4F86B
:102E8000605138BD1CC8020050C8020013B54FF095
:102E9000FF330093312230210446FFF7CDFF204657
:102EA00002B010BD10B5054C2046FFF7EFFF2046DD
:102EB000034A0449BDE8104011F092BB8816001087
:102EC00000010010D92D010008B5FFF73BFEFFF708
:102ED00005FCFEF729F9FEF7FFF8FCE70368184741
:102EE00010B5054B0360044600F01CFC204600F0C2
:102EF00071FD204610BD00BF9CCA0200C36810B51A
:102F00002BB9044904484FF4FD7211F0A3F8BDE851
:102F10001040184710C9020066C9020007B50190A9
:102F200011F0C0F80198012114F076F803B05DF8B3
:102F300004EB11F0CDB807B5019011F0B3F801988A
:102F4000002114F069F803B05DF804EB11F0C0B88B
:102F500007B5CDE9001011F0A5F8DDE9001013F078
:102F600095FF03B05DF804EB11F0B2B8F8B5054673
:102F7000064655F8044B8CB90D4F386818B14FF020
:102F8000FF3113F003F8346824B9284611F094FF98
:102F90002C463560386808B113F010F8AC4204D004
:102FA000044905488B2211F055F82046F8BD00BFB2
:102FB0005063001072C90200CCC90200704710B5FE
:102FC0002821044611F042FD204610BD036870B56B
:102FD00004460D461B689847201D2562294614F0BB
:102FE000A5F9044B1C60236820465B68BDE870406F
:102FF000184700BF14180010036870B5084D1B680F
:10300000044698472B68A34204D0216A201D14F07F
:103010008DF92C60236820465B68BDE87040184736
:10302000141800107FB51D4603680446CDE902213F
:103030001B6898472046FFF7DFFF9DF8203083F09C
:103040000103DDE902210093201D2B4614F0AAF9AB
:10305000236806465B6820469847A81B18BF0120D6
:1030600004B070BD7FB51D4603680446CDE902215A
:103070001B6898472046FFF7BFFF9DF8203083F07C
:103080000103DDE902210093201D2B4614F064F9B1
:10309000236806465B6820469847A81B18BF012096
:1030A00004B070BD70B586B00024082301260DEB76
:1030B0000300154600962246CDE9024410F0CCFBF1
:1030C00004A80096082322462946CDE9044410F0BE
:1030D000C3FB04A813F0F4FF00284FD002A813F09C
:1030E000EFFFB04202D1002006B070BD082104A855
:1030F000FFF72EFF04A8FFF711FF0A24082104A8F8
:10310000FFF726FF002104A813F0B8FF052011F0F7
:10311000BBFC10210DEB0100FFF71AFF012104A8F1
:1031200013F0ACFF052011F0AFFC013CE6D102A882
:10313000FFF7F4FE214602A813F0A0FF052011F0CE
:10314000A3FC012104A813F099FF052011F09CFCB9
:10315000012102A813F092FF052011F095FC02A8AE
:10316000FFF7E9FE04A8FFF7E6FE04A813F0A8FFA6
:1031700020B102A813F0A4FF0028B4D16FF0010021
:10318000B2E7000008B50348FFF7F0FEBDE80840CD
:1031900011F09ABEEC17001008B50348FFF7E6FEE1
:1031A000BDE8084011F0AEBEEC170010F8B50546BA
:1031B000134B45F8043B04460E46174600211C22DB
:1031C000284618F049FC0F4B23622046FFF7DAFF30
:1031D0003A46314684F8246084F825702046FFF78B
:1031E00061FF94F9252094F92410284614F058F82A
:1031F000054B20461C60FFF7CFFF2046F8BD00BFFF
:10320000F8C90200A08601001418001013B590F947
:103210000B304468009390F90A3090F9092090F936
:103220000810201D14F0E2FB02B010BD10B50446DA
:1032300010F038FF074B1B68002B09DD064B187890
:10324000A0420CBF1C46002410F042FF204610BDD7
:103250000024F9E76418001018180010084A08B58F
:103260001368002B04DD07490748AF2210F0F2FE77
:10327000591C1160054A4C2000FB032008BD00BF0B
:103280006418001008CA020027CA020018180010AB
:103290000822002310B5C0E905230B4BC361044687
:1032A000FF23038410F0FEFE94F82800FFF7BEFF12
:1032B000606028B9FFF7D2FF94F82830606003708F
:1032C000BDE8104010F004BF40420F0038B504467E
:1032D0000D48206004F10C000025A3729DF9103008
:1032E00021726272E372E5604FF0FF31456010F0C9
:1032F000B0FA064B65622046E36284F82850FFF777
:10330000C7FF204638BD00BF58CA02000D32010079
:1033100043689B6C834210B504460FD0C36A98473C
:103320006068D4E905120023043014F0C5FB60681E
:10333000E169043014F0DEFB63689C6410BD03682F
:1033400070B504461B690D46164698476068836C45
:10335000A342C4E905560BD1002332462946043066
:1033600014F0AAFB236820465B69BDE8704018474B
:103370002046FFF7CDFFF5E7036870B504461B69EB
:103380000D4698476068E561836CA34209D12946E0
:10339000043014F0AFFB236820465B69BDE8704041
:1033A00018472046FFF7B4FFF5E713B500F10C040A
:1033B0002046019113F04AFD019928B1204602B040
:1033C000BDE8104013F05ABE02B010BD38B5036816
:1033D00004461B69984794F921506B1C84F82130EE
:1033E00045B92046FFF794FF29462046BDE83840FE
:1033F000FFF7DBBF38BD10B590F82130013B5BB261
:10340000044680F8213013B90121FFF7CEFF23686D
:1034100020465B69BDE81040184737B50446019166
:10342000FFF7D4FF60680199043014F0E3FB054610
:103430002046FFF7E0FF284603B030BD30B5044614
:1034400087B0CDE904210393FFF7C0FF94F8205023
:10345000606801950A9D05990095DDE90332043005
:1034600014F058FB05462046FFF7C5FF284607B075
:1034700030BD08B540682030FFF778FDBDE8084052
:1034800011F022BD08B540682030FFF76FFDBDE8A0
:10349000084011F037BD000010B5084B036004462A
:1034A000FFF7E7FF63689A6CA24208BF002220463C
:1034B00008BF9A64FFF7E6FF204610BD58CA020015
:1034C00010B50446FFF7E8FF2046302111F0BEFAA0
:1034D000204610BD7047000013B504460C3094F927
:1034E000372094F93610019014F0CEF8216B019832
:1034F00014F080F803490198224602B0BDE810405C
:1035000014F026B9C536010038B50C4D05600C4DD8
:1035100045600025C0E90B5340F20113C0E9025594
:10352000C0E90E550446C561838680F8361080F8E0
:1035300037200564FFF7D0FF204638BD78CA020067
:10354000D934010070B50646044656F80C3B0D46CA
:103550001B6898473046294614F04CF823682563C9
:1035600020465B68BDE8704018477FB505460446B5
:1035700055F80C6B0193CDE902213668B047DDE9BF
:1035800001322846039914F04BF823685B68204603
:1035900004B0BDE87040184738B50546044655F8F4
:1035A0000C3B1B689847284614F07AF923680546B7
:1035B0005B6820469847284638BD38B5054604461E
:1035C00055F80C3B1B689847284614F093F923687C
:1035D00005465B6820469847284638BD84B02DE9EB
:1035E000F04709AE86E80E0003689DF834701B684A
:1035F0000546984795F834307C1C03B18FB195F897
:1036000035300BB1012F0CD096E80F0005EB0414F8
:1036100084E80F002B682846BDE8F0475B6804B0DB
:10362000184710F03FFD05EB04190C9AD9F80C303F
:1036300005F10C0882B10BB910F040FF96E80F00BD
:1036400005EB041484E80F0001223946404614F0CB
:1036500087F810F03DFDDDE70BB110F030FF0022E0
:10366000C9F80C20F1E7000070B50B4B036086B081
:103670000026CDE9006602AC94E80E000546FFF78F
:10368000ADFF0123CDE90063284694E80E00FFF763
:10369000A5FF284606B070BD78CA020010B50446E2
:1036A000FFF7E2FF2046442111F0D0F9204610BD7B
:1036B0000C3014F0A7B810B50C300C4614F0CCF850
:1036C000204610BD013100EB011008B5C3680BB1F5
:1036D000FFF714FC08BD70B5D0E90213D0E9082546
:1036E0000446521845EB030300F064F9636B23B101
:1036F00004F12800BDE87040184770BD38B5044695
:10370000154600F041F9064B236000220023C4E96E
:1037100008230023636384F83850204638BD00BF77
:103720009CCA020013B5044601A810F0B9FB20465C
:1037300000F04AF9636B23B194F838300BB110F004
:10374000BEFE0023636301A810F0B2FB02B010BDFF
:1037500070B5044615461E4600F036F9C4E9085611
:10376000A06910F022FB2A1846EB01032046BDE8B1
:10377000704000F01FB984B073B5054607AC01A8CE
:1037800084E80E0010F08CFB6B6B23B995F8383091
:103790000BB110F093FE94E80F0005F1280686E8BF
:1037A0000F00DDE90C232846FFF7D2FF01A810F037
:1037B0007FFB02B0BDE8704004B0704710B504460E
:1037C00010F06EF8002201462046FFF797FF024BEB
:1037D0002360204610BD00BF90CA0200437D10B593
:1037E00004461BB1037D0BB110F069FE204610BDED
:1037F00013B5044601A810F053FB637D53B9237D34
:103800000BB110F05BFE206910F0CFFAC4E90001A3
:103810000123637501A810F04BFB02B010BD37B552
:1038200004460D4601A810F03BFB00230022C4E92A
:1038300000236B7D4BB1286910F0B7FAD5E900324F
:10384000C01A61EB0201C4E9000101A810F030FBCD
:10385000204603B030BD30B585B004460D4603A800
:1038600010F01EFB29466846FFF7D9FFD5E9021084
:10387000009B019A5B1840EB0202C4E9003203A8E6
:1038800010F016FB204605B030BD13B5044601A864
:1038900010F006FB206910F088FA00220023C4E92A
:1038A0000001C4E9022301A810F002FB02B010BD20
:1038B000D0B5002300260027C0E90067C0E90267F1
:1038C0000446016102754375FFF7DFFF2046D0BD56
:1038D00010B5044610F090FA012201462046FFF789
:1038E000E7FF204610BD10B504460FF0D9FF0022B7
:1038F00001462046FFF7DCFF204610BD30B5436B84
:1039000085B00446B3B100F128030FCB6D4685E8BE
:103910000F000023636394F838300BB110F0CFFD33
:10392000039B2BB9044905484FF4FD7210F092FB3C
:103930002846984705B030BD10C9020066C902008C
:1039400010B5044610F058FA012201462046FFF750
:10395000D5FE024B2360204610BD00BFA8CA02005E
:1039600010B504460FF09CFF002201462046FFF7E9
:10397000C5FE024B2360204610BD00BFB4CA020042
:1039800003681B681847000010B50446074B236006
:1039900000220023C4E9022300230846A161C4E9F0
:1039A0000433034910F078F9204610BDCCCA020058
:1039B0008139010007B5009000F10801806910F01D
:1039C000AAF903B05DF804FB00F10801806910F06A
:1039D000D1B9000010B5034B03600446FFF7F4FFB4
:1039E000204610BDCCCA020070B511F00104054696
:1039F0008EB204D0FFF7D0FD041E18BF0124F306D9
:103A000005D52846FFF7D9FD08B144F0100420463B
:103A100070BDA0F14400FFF7E7BF000010B5034BF5
:103A200003600446FFF720FE204610BDD8CA0200FE
:103A3000A0F14400F2E700BF10B50446FFF7EEFF27
:103A40002046482111F002F8204610BDA0F14400A4
:103A5000F2E72DE9F04106460D461746CAB110F0CF
:103A60001FFB80F0010313F0FF0403D033683046DE
:103A70001B68984705EB0708454505D015F8011B5D
:103A80003046FFF718FEF7E71CB1336830465B6835
:103A900098473846BDE8F081A0F14400FFF7D9BF50
:103AA00038B504460D4662B103681B689847204646
:103AB000FFF7FEFD2870236820465B6898470120C9
:103AC00038BD1046FCE7A0F14400FFF7E9BF000055
:103AD00010B50446FFF718FD034B03F108023C3311
:103AE00022606364204610BDD0CA0200704703689C
:103AF0000BB108461847704713B5044610F0D2FAC8
:103B0000237F1BB110F0E4FA02B010BD012323772C
:103B100010F0DEFAA36804F10800002BF4D063690A
:103B2000019401A99847EFE738B50C4A01600023DA
:103B3000C0E90333044643608361836042610377D5
:103B400049B9074D2B6813B901F01CF828602368A8
:103B500055F823306360204638BD00BFEF3A0100BE
:103B60009018001070B560B9104C26683EB920203E
:103B700010F056FF31460546FFF7D6FF2560206856
:103B800070BD0B4C2378BFF35B8FDB0701D5094871
:103B9000F6E7204610F030FD0028F8D00121054856
:103BA000FFF7C2FF204610F049FDF0E76C18001047
:103BB0006818001070180010704708B50846FFF725
:103BC000D1FFBDE80840FFF797BF0000002A08B505
:103BD000C0E9001205DA074907484FF40E7210F0E9
:103BE00039FA29B922B10349044840F23922F6E7EB
:103BF00008BD00BF54CB0200A6CB0200B1CB02002F
:103C000000220260828070477047704710B508211B
:103C1000044610F01BFF204610BD000008B5034805
:103C20000FF04AFDBDE8084000F026BA254101002A
:103C300038B51C461B78062B0846114604D163781C
:103C4000202B04BF00232372224600F0B1F9054661
:103C500020460FF095FA284638BD00F0C9BA7047E3
:103C6000044A026042F228324260034A826005221E
:103C7000C2607047E018001018CC020010B538215F
:103C8000044610F0E3FE204610BD012000F0CCB841
:103C900000F062B938B504460D46043500F0D4FA98
:103CA000024B2360A561204638BD00BFF0CB020067
:103CB00038B5164C2378BFF35B8FDA070ED4204655
:103CC00010F09AFC50B1124D124B2B60204610F0B0
:103CD000B5FC114A1149284610F082FC104C23789B
:103CE000BFF35B8FDB070FD4204610F085FC58B183
:103CF00007490C48FFF7CEFF204610F09FFC064A0C
:103D00000949084810F06CFC064838BD98180010A6
:103D1000D4180010D4CB020000010010093C0100AF
:103D2000941800109C1800105F3C010073B515F04A
:103D300085FD114B01909B68BBB1104CD4F80C333E
:103D4000190712D4D4F80C331A06C3F3C0160CD4D6
:103D50000B4D0121286814F023F8D4F80C331B060E
:103D600003D52868314614F01BF8019802B0BDE86D
:103D7000704015F067BD00BF845B001000C00050AC
:103D80009C5C0010024B1B6803B11847704700BFD2
:103D9000103C001008B1FFF7F5BF704710B50C4894
:103DA0000C4C0122002116F08DFFD4F80C331B07B8
:103DB00009D4074B9B6853B1074BBDE810401878F6
:103DC00001210FF047BC052017F070FBEDE710BD97
:103DD000845B001000C00050093C001010B50D4B72
:103DE0000D4C19600D4B012118780FF033FCD4F8FD
:103DF0000C331B0609D40A4B9B6853B1094BBDE831
:103E000010401868012113F0CBBF052017F04EFBBE
:103E1000EDE710BD183C001000C00050093C001038
:103E2000845B00109C5C00102DE9F041414A424C3B
:103E3000DFF8208100231360404A88B007461360F2
:103E40000B263D49002013F0C9FF014618B9206830
:103E500014F08CF820B1FFF79DFF08B0BDE8F081A9
:103E600020230422CDE90123039302230790CDE907
:103E7000050004932068012301A98DF81E3013F07A
:103E8000FDFF0028E7D11FB14FF47A7017F0FEFA5A
:103E9000206815F00DF90546F8B1454520684FF04A
:103EA00001010FD114F062F80028D4D1206813F07A
:103EB000C5FF0028CFD1013ECFD04FF47A7017F064
:103EC000E5FABEE714F052F80028C4D1206813F0D8
:103ED000B5FF0028BFD12846BDE70821206815F0AE
:103EE00023F940F28131206814F0FAFE206840F294
:103EF000813114F0C9FE124BDB68DBB2202B09D9EB
:103F00004FF4C031206814F0EBFE20684FF4C0314C
:103F100014F0BAFE0B4B4FF480521A604FF4026358
:103F20004FF482720849094816F098FE084B0022A7
:103F30001A6092E7183C00109C5C00100C3C0010CA
:103F40000000024000E100E054530010845B0010C8
:103F5000143C00100B000008104B4FF4805210B5B9
:103F6000C3F88020BFF34F8FBFF36F8F0C4C01213C
:103F7000206813F0FBFF38B90A4A93689B04FCD40D
:103F8000206813F05BFF18B1BDE81040FFF702BFD7
:103F9000054A1060054A106010BD00BF00E100E056
:103FA0009C5C001000100240183C00100C3C0010FB
:103FB00070B516462D4A0C46D2E90213994290B0CC
:103FC000054606D14FF01060FFF7DCFE204610B02A
:103FD00070BDFF2C01D92648F6E753691268611CB1
:103FE00099501344002203F8040F944239D8012257
:103FF00000211E4816F03BFEFFF798FE012DE5D18B
:104000007278337803EB02239BB240F6034293426B
:10401000DCD103A9284615F0DDFEBDF81030ADF85F
:104020000430BDF812308DF80630059B8DF807304E
:104030001A0A1B0C8DF809300E4B8DF80820002150
:1040400001A813F8012B02B10A5401310629F8D155
:1040500001AA4FF6324002F083FD012002F0BCF9C4
:10406000B4E7B15C03F8011F0132BEE7845B0010C6
:1040700001000009DC010010054B1870054B0222FD
:104080009A711873044B032218739A71704700BF1A
:10409000093C0010A05C0010745B001037B5174D90
:1040A0000121286814F00EFE04460146286814F029
:1040B00017FE2146286814F077FD14F080010BD01C
:1040C0002868002113F06CFE0D4B1878012103B015
:1040D000BDE830400FF0BEBAE3050DD5094B9A6834
:1040E00052B158695B68084C0191C2180094C358DA
:1040F0002868043214F0ECFC03B030BD9C5C001066
:10410000093C0010845B00109D3D010003490448F8
:104110004FF402634FF4827216F0A0BD54530010A6
:10412000845B001038B58B78022B03D1BDE8384092
:1041300002F02BBC032B03D1BDE83840FFF7F6BDDE
:10414000214C224D21682B6899420AD9204A1068D7
:10415000C91A1844FFF781FD1E4A002323602B6013
:1041600013701D4BD3F80C331B062BD5194B1A7843
:1041700002F0FF0532B1194B01211878BDE8384033
:104180000FF068BA16481749006801221A702B46CA
:10419000154A14F0C7FC2368B3F5807F04D9BDE845
:1041A00038401248FFF7EEBD60B1FFF7F3FDFFF7AF
:1041B000D3FE2846FFF738FEFFF7A8FFBDE83840DA
:1041C0000BF0D4B838BD00BF183C00100C3C0010F8
:1041D000E4010010083C001000C00050093C001031
:1041E0009C5C00109C5B0010DD3D0100020000099A
:1041F000F8B5084F05460C465CB1FF2C264628BF93
:10420000FF2628463B68F1B2A41B9847A4B2354468
:10421000F2E7F8BDE8010010002070477047022067
:10422000704702F0CFBB0000054BDB6F9A0605D547
:10423000044B1B689B0601D502F007BA02F05FBA77
:10424000B05C0010EC010010024A02600022C0E9DC
:104250000421704798CC020010B5044640690368F9
:104260009B689847236820461B6ABDE810401847A2
:10427000036810B504465B6A984760690368BDE847
:104280001040DB681847000007B5019100F04AFCB8
:104290000368DB699847019906F010F920B10449D9
:1042A000044866220FF0D6FE03B05DF804FB00BFA1
:1042B0002CCC02007ACC020030B50B780E2B85B0E6
:1042C00005460C461CD10979E37803EB012399B22A
:1042D00042F20F03994204F106025AD8B1F5005F89
:1042E00010D840F66343994200F0988030D840F6E9
:1042F0000143994200F08A8040F6034399427ED000
:1043000005B030BDA1F50053013B0E2BF8D801A23A
:1043100052F823F0154401002944010055440100DE
:104320000143010023440100014301000143010056
:104330000143010001430100014301000143010069
:104340000143010001430100014301004744010012
:1043500041F20103994245D041F209039942CFD17C
:10436000594811466C460FF051F800230093A38082
:104370002B6821465B6928469847002851D094E86D
:1043800003000290ADF80C10284602A9FFF77CFF4D
:10439000B6E742F2240399427ED00FD842F21803C6
:1043A000994200F0878042F21C039942A8D110681C
:1043B0005168464B03C302F0D2F9A1E742F22F0342
:1043C00099425CD006D842F22A03994298D1A27948
:1043D0003F4B4FE042F23B0399420BD842F2390384
:1043E00099428DD93A4BD3F89030002B88D01046A3
:1043F000984785E742F24A039942F3D080E7354B6C
:10440000354800221A7002F0EFFA79E7334802F0DB
:1044100017FA75E7324802F0FAFA71E702F0A9FAE2
:104420006EE702F078F96BE7E179A279284B02EBAD
:104430000122A3F87220227A83F8772083F876206D
:1044400002F081F95CE7224BA27983F8782002F030
:104450006EF955E7E379A27902EB03221C4B510672
:10446000DA6706D51F4A1268520602D502F047FBEA
:1044700046E7002283F88120FFF7D6FE40E7617A05
:10448000237AE279A07903EB012100EB022089B2C3
:1044900080B202F0A3F833E70D4BD3F8902012B1AD
:1044A00002F073FA2CE7A3F88220A3F8842002F02C
:1044B00026F925E7074A1378022B02D80133137037
:1044C000F5E70FF0A1F81BE70C5D0010045D00108C
:1044D000B05C00101C3C0010ACCF0200BCCF02004E
:1044E000B4CF0200EC010010406910B404682469E4
:1044F000A4465DF8044B6047036910B504461BB140
:10450000043098470023236110BD7047704700793D
:10451000831E58425841704700487047E4CE02005D
:104520000368DB691847704703685B6B18470368CB
:104530000BB108461847704770477047704770477F
:1045400070477047704770477047704770477047B3
:1045500070477047F0B50746406889B00D46E8B12E
:1045600014200EF0B1FD044620B9104910484E2227
:104570000FF070FD95E80F0084E80F006E4604AD63
:1045800086E80F0085E80F0000232361FB683BB934
:10459000FC60D7E90101FFF710FB012009B0F0BD75
:1045A0001A461B69002BFBD11461F2E7C0CC020054
:1045B00006CD0200036A0BB1143018477047036937
:1045C0000BB104301847704710B50421044610F0B1
:1045D0003DFA204610BD10B50421044610F036FA0D
:1045E000204610BD00F0DEBF07B5019100F0DAFFF4
:1045F000019900F0E2FD002003B05DF804FB13B563
:104600000C4600F0CFFF0146684600F0C9FD009B54
:104610002360019B6360002002B010BD0346007858
:104620009B78272B02D0282B03D07047002107F05E
:10463000B5BC07F0F3BC00007FB51C4C2378BFF37A
:104640005B8FDA0705460ED420460FF0D5FF50B138
:10465000174E184B336020460FF0F0FF164A1749EB
:1046600030460FF0BDFF164C2378BFF35B8FDB079E
:1046700018D420460FF0C0FFA0B105F095FD0390BF
:1046800006F034F8039A0A4B009005F10C010D482E
:1046900006F022FB20460FF0D1FF074A0A490948DD
:1046A0000FF09EFF074804B070BD00BF683C0010CB
:1046B000AC3E001020CE0200000100100D450100AC
:1046C0006C3C0010B03E00100DA2010038B503791B
:1046D000022B04461ED1002303710F4B1868FFF70D
:1046E000C7FD236820465B6A984701F013F82368EA
:1046F0002046DB6A984704F0E3FD23682046DB6927
:10470000984706F0EFFBA06928B105690EF0FEFCA2
:10471000A561F8E7092038BD703C001038B5064B9C
:1047200003600446406828B10569142110F08EF931
:104730002846F8E7204638BD00CE020010B50446F2
:10474000FFF7ECFF20460C2110F080F9204610BD49
:1047500038B5064B03600446406828B1056914214A
:1047600010F074F92846F8E7204638BDF0CD020075
:1047700010B50446FFF7ECFF20460C2110F066F957
:10478000204610BD38B5064B03600446406828B18A
:104790000569142110F05AF92846F8E7204638BD7B
:1047A00010CE020010B50446FFF7ECFF20460C21A6
:1047B00010F04CF9204610BD38B5064B0360044696
:1047C000406828B10569142110F040F92846F8E73F
:1047D000204638BD98CE020010B504462830FFF7B9
:1047E000EBFF04F11C00FFF7CDFF04F11000FFF711
:1047F000AFFF201DFFF792FF204610BD10B5044605
:10480000FFF7DAFF20460C2110F020F9204610BDFA
:1048100038B5064B03600446406828B10569142189
:1048200010F014F92846F8E7204638BD38CE0200CB
:1048300010B50446006A10B103685B6898472046CB
:10484000FFF7E6FF204610BD10B50446FFF7E0FF76
:1048500020460C2110F0FAF8204610BD70B4D0E9C3
:1048600001340568661005EB6400E40744BFAC59E9
:10487000E35870BC184730B4D0E9013204685510D1
:1048800004EB6200D20748BF625930BC48BFD3581E
:104890001847000010B5054B03600446FEF742FFC1
:1048A0002046FFF797F8204610BD00BF9CCA0200C3
:1048B00010B5054B03600446FEF734FF2046FFF7B2
:1048C00089F8204610BD00BF9CCA020038B50A4BCB
:1048D000044640F8203BFEF781FF084BE360A069E7
:1048E00020B105690EF012FCA561F8E72046FFF73C
:1048F00063F9204638BD00BFA8CE02008CCE02006E
:1049000010B50446FFF7E2FF2046402110F09EF864
:10491000204610BD37B50D4604460192FFF7C8F991
:10492000019B2A46214603B0BDE83040FFF7DCBDBD
:1049300010B5FFF7BDF90368BDE81040DB68184704
:1049400007B50190FFF7B4F9036801991B6903B03B
:104950005DF804EB1847000070B54E4B196888B03D
:1049600029B94D494D4840F285120FF073FB0B6891
:104970004B4E9B684B4D04A89847049B059C069999
:104980009DF81C0033602C600EF032FB83B223B91B
:104990004149454840F29312E7E7336882B213FA7F
:1049A00080F02B6830609B1A94422B6006D900235C
:1049B0003E493F480093A21A0FF05EFD0EF0B8FC8E
:1049C00003F07CFD03F08CFD03F0E6FB03F0C4FC78
:1049D00003F014FD37480EF06FFE0BF08FFB3648E6
:1049E0000EF06AFE039009F02DF90BF06FF90AF052
:1049F000C5F90AF045FB0AF02FFC0BF055FA0AF056
:104A0000A5FD0BF0B7FA0AF031FF03980AF01CFD80
:104A10002A480EF051FE0BF0B3FE0BF03FFD0BF0F9
:104A200059FE0BF097FD26480EF046FE03F062FE9D
:104A300007F066FD07F032FC224807F077FD08F02A
:104A4000F1F804F0E1F807F01FFA1F480EF034FE09
:104A50000CF062FD0EF0B8FA0EF0C2F80DF014FF83
:104A60000DF008FF19480EF027FE194B187046206C
:104A700001F018FC17480AF0B5FC164903200AF0AB
:104A800091F9154803F07AFE144808B0BDE870406B
:104A900003F05ABE703C001018CD020060CD020039
:104AA0004C3C0010483C001074CD020084CD020044
:104AB000050118801101020061F401009107020054
:104AC0002D870100975001007D150200894B0100E0
:104AD000C83F0010254C01001D460100415B01004C
:104AE00038B50D4A0D4B036000230446C0E903238B
:104AF000C0E905330371836020300D46FEF7F3FEF5
:104B000000220023C4E90E23054B20461D60FFF759
:104B100023FF204638BD00BF8CCE0200A8CE020085
:104B2000703C001010B50D4C2378BFF35B8FDB0792
:104B300011D420460FF060FD68B1FFF7B9F80146C7
:104B40000748FFF7CDFF20460FF078FD054A0649DC
:104B500003480FF045FD024810BD00BF5C3C00104B
:104B6000603D001000010010CD48010008B5FFF7BE
:104B7000D9FFBDE808400021FFF71FB808B5FFF7CF
:104B8000F5FF08BDFFF7CEBF13B50C4671B305F0B6
:104B9000ADFD204606F078FB40BBA278202A05D068
:104BA000672A25D0204606F039FF1FE0CDE9000036
:104BB000FEF7D8FF009002F0EBFAC30407D509F026
:104BC000B5FD0AF099FF0AF01BFA0AF011FBFFF796
:104BD000A9FF03685B6A984700F04CFCFFF7A2FF4F
:104BE000022303710D486946C368984702B010BD9F
:104BF000E378002BD6D1228842F21F039A42D1D10A
:104C0000A3796279217902EB0322054BB1FA81F194
:104C1000186892B24909FFF76FFCE7E7743C00108F
:104C2000703C001010B54388412B04460AD105F0B2
:104C3000BBFA006870B16389E2882188BDE8104042
:104C400005F098BBFFF76EFF21460020BDE810403D
:104C5000FFF79ABF10BD000008B5044B1868FFF7B6
:104C6000FBFABDE808400AF081BB00BF703C0010B1
:104C7000F7B50479012C05460F46164619D0022CCB
:104C800019D0D4B920300190FEF7FFFD0198FEF74E
:104C9000AFFD96E807000A4BC5E9045783E8070013
:104CA000F2682846C3E90324FFF7D6FF204603B085
:104CB000F0BD0924FAE70024F8E70B24F6E700BF6B
:104CC000743C001070B504468CB0A06970B1D0E996
:104CD00003352BB93D493E484FF4FD720FF0BAF948
:104CE0009847A0690EF012FAA561EEE704F12005DD
:104CF000294604A8FEF7AFFDD4E90E3204995B18EB
:104D0000059941EB0202C4E90E322846FEF7BDFDCB
:104D1000D4E90E014FF47A720023FBF7BBFF05467E
:104D20000E4670B10EF02AFB4FF47A73A5FB030117
:104D300003FB0611D4E90E321B1A62EB0102C4E92F
:104D40000E32244C0EF0CEFC2378BFF35B8FDB07D2
:104D50000ED420460FF050FC50B11F48FEF700FE65
:104D600020460FF06BFC1D4A1D491B480FF038FC14
:104D700007A80FF095F80EF0ABFCC8B10DF11F00BD
:104D80000EF018FB9DF81F30BBB10021CDE90911D1
:104D90004FF47A71A0FB0101CDE90201114A124BD7
:104DA0000893009208AB0B920B480ECBFEF7E3FC86
:104DB00007A80FF07DF80CB070BD0FF081F80B4B19
:104DC000186803689B699847F2E700BF10C90200A2
:104DD00066C90200583C0010203D00100001001080
:104DE00095480100DD2E01007D4B0100703C001054
:104DF00030B51C4D2B78BFF35B8FDB078BB00446BF
:104E00000ED428460FF0F8FB50B11748FEF798FD76
:104E100028460FF013FC154A154913480FF0E0FB24
:104E20002046FFF74FFF0EF053FCC8B10DF11700FD
:104E30000EF0C0FA9DF8173093B10021CDE90711AB
:104E40004FF47A71A0FB0101CDE90201094A0A4B36
:104E50000693009206AB099203480ECBFEF78BFC3B
:104E60000BB030BD503C0010883C00100001001019
:104E7000B1480100DD2E01007D4B0100FFF722BF8C
:104E800010B510220446002116F0E6FD204610BDA4
:104E900070B504462F480578BFF35B8F15F0010508
:104EA00055D10FF0A9FB002851D005F01FFC236855
:104EB0000646DB6920469847274C284B284A6661FE
:104EC000C4E900352346103043F8102FE360254B2A
:104ED000A061C4E9073504F12400FEF791FE04F156
:104EE0002A00FEF78DFE04F13000FFF7C9FF04F140
:104EF0004000FFF7C5FF04F15000FFF7C1FF04F1C8
:104F00006000FEF77DFE04F16600FFF7B9FF0F2396
:104F100084F877304FF4807384F87650A4F87830B2
:104F200084F87A5004F17C067019143504F0F8FE08
:104F3000642DF9D1636907481C60012384F850305F
:104F40000FF07CFB084A094903480FF049FB02486F
:104F500070BD00BF643C0010C83D001038CE020098
:104F600048CE0200A83E00100001001031480100A8
:104F700010B5094C094B0022C0E90821026002610A
:104F8000C1E90142064C0860C1E90532054BCB611D
:104F9000C1E9034010BD00BFBF450100B545010098
:104FA0005D4801007748010070B517480378BFF3EA
:104FB0005B8FDB0725D40FF01FFB10B3134E347843
:104FC000BFF35B8F14F001040FD130460FF014FBD8
:104FD00058B10F4D3046C5E90744EC600FF02EFB89
:104FE0000C4A0D4928460FF0FBFA09490B48FFF718
:104FF000BFFF05480FF022FB064A094907480FF09A
:10500000EFFA064870BD00BF603C0010203C001065
:10501000243C0010000100100B450100A03D0010D1
:105020002745010038B50E4C2378BFF35B8FDB07B3
:10503000054612D420460FF0DFFA70B12846FFF77C
:10504000B3FF0146074804F057F920460FF0F6FA7F
:10505000054A064903480FF0C3FA024838BD00BFAD
:10506000543C0010C83C001000010010D94701005A
:10507000044B0022C3E901221A611A60024ADA6075
:10508000704700BF743C00102F45010003680BB14E
:105090000846184770471FB50190FFF743FD0368A6
:1050A0001B6B9847002301998DF80C3003AA04F07C
:1050B0007FFE38B99DF80C30042B18BF052005B0D1
:1050C0005DF804FB0520FAE738B5064B036004469B
:1050D000406828B1056914210FF0B8FC2846F8E7AC
:1050E000204638BDFCCE020010B50446FFF7ECFFA9
:1050F00020460C210FF0AAFC204610BD38B5064B07
:1051000003600446406828B1056914210FF09EFC35
:105110002846F8E7204638BD0CCF020010B50446FB
:10512000FFF7ECFF20460C210FF090FC204610BD4D
:1051300010B504462C30FFF7E1FF04F12000FFF723
:10514000EDFA04F11400FFF703FB04F10800FFF788
:10515000BBFF204610BD0346002210B503F8012B0B
:1051600000F1110403F8012B9C42FBD1418210BDD8
:10517000C06A044B002818BF1846003818BF012029
:10518000704700BFED3A0100006C044B002818BFC7
:105190001846003818BF0120704700BFED3A0100E3
:1051A000B1F831220280B1F833224280B1F83522C1
:1051B0008280B1F83722C28070470B88A0F8313264
:1051C0004B88A0F833328B88A0F83532CB88A0F812
:1051D00037327047B0F8A0220346F3B40021C0F87C
:1051E0009811501CA3F8A8014748C3F8A0014748EC
:1051F000C3F8A40103F5D670C3F89C014448C3F872
:10520000AC014448444DC3F8B00103F5DC70C3F869
:10521000B401571DD01CA3F81D02A3F825722888DD
:105220003E4FA3F81F0203F50770B7F800C0C3F89C
:10523000C001C3F8CC5103F5E47003F22225C3E9A1
:105240007415C3F8C401A3F827C23548354D364C50
:10525000364EC3F8D85103F5097C0225C3F8E0C1E6
:1052600003F5F47CC3E979C0C3F8B861C3F8BC4165
:10527000C3F8C801A3F82212C3F8DC41A3F82A122C
:1052800083F8245203F5FC71C3F8EC71C3F8F8619C
:10529000274EC3F8F41103F22A21C3F8F011318824
:1052A000A3F82F1203F50B71C3F8001203F5027176
:1052B000C3E981101F49C3F8FC410868496883F8B5
:1052C0002C526C4603C46C4603CC03F23127C3F85E
:1052D000351203F50671C3E9847107321649C3F824
:1052E000310292B203F5CC70A3F8A022A3F82D22CC
:1052F000C3F80C62C3F8181283F81C52A3F8AA2151
:1053000002B0F0BC07F018B9475801003957010046
:1053100038D1020030D102002ED1020028D1020083
:1053200005000001F80008012AD102000200000176
:1053300036D1020058BF020008000001B0F8A012E8
:10534000394A4B1C70B5A0F84C32384BC0F8443287
:10535000374BC0F8483200F51473C0F84032354B73
:10536000C0F85032344BC0F8543200F51773C0F80F
:105370005832324BC0F85C32CB1C044600259BB23D
:10538000C0F83C52A0F8A032A0F891321088A4F8DE
:1053900093022B48C4F8600204F52470C4F8640238
:1053A00004F51B70C4F868022648C4F87C52C4E9AE
:1053B0009B0204F51F72C4E99D52234AC4F880225F
:1053C00094F8402102F1780004EB4000C4F8840214
:1053D00004F52370C4F888021C48C4F88C0220200D
:1053E00084F89002062000FB02400226A0F87830E4
:1053F000A0F87A6080F87C5002F18C0031440132D0
:1054000024F8101084F8402104F50F70A4F84E32EF
:1054100007F092F894F840010D4A04F17801BDE8D4
:10542000704006F0ADBD00BF3AD102004758010000
:105430003957010038D1020034D1020002000001C6
:105440002AD10200050000012CD102000200201127
:105450004759010090F8A23210B504464BB9012318
:1054600080F8A232FFF7B6FE2046BDE81040FFF7F5
:1054700065BF10BD10B50446034807F057F8204635
:10548000BDE81040FFF7E6BF9750010030B590F837
:10549000944100F5A2730022944206D953F8040BFC
:1054A000858B8D4202D00132F6E7002030BD00002E
:1054B0000022C0E901220261014A0160C260704716
:1054C0008D50010038B5104B0025C0E902350F4B57
:1054D0000560C0E905350E4B8580C0E908350D4BE8
:1054E0000446C0E90B3529463830FFF7E1FF29466D
:1054F00004F14C00FFF7DCFF294604F16000FFF7E0
:10550000D7FF204638BD00BFFCCE0200F0CD020020
:1055100000CE02000CCF020038B50446FFF7D2FFE0
:105520000022626704F17E0304F1F60123F8062CE1
:1055300023F8042C03F8022C06338B42F6D104F135
:10554000F00204F58C73002122F8021B9342FBD178
:1055500004F5A072002123F8021B9A42FBD14FF000
:10556000000384F8403104F5CA7204F5A2730025E3
:1055700043F8045B9A42FBD184F89451A4220021A1
:1055800004F5CC7016F068FA5C22002104F50F7067
:1055900016F062FAC4E9A655A4F8A05284F8A25203
:1055A000204638BD10B50B4C2378BFF35B8FDB076B
:1055B0000ED420460FF020F850B10748FFF7ACFF9B
:1055C00020460FF03BF8054A054903480FF008F85C
:1055D000014810BDCC3F0010E43F00100001001056
:1055E0003151010010B503460C4607C983E8070096
:1055F000E268DA6000221A61184610BD70B50446F0
:1056000086B0236B6363606B38B1C36821469847EB
:10561000636B002BF5D01B69F4E7206B28B105699B
:1056200014210FF013FA2846F8E72063A080E06801
:1056300028B1056914210FF009FA2846F8E7E0605F
:10564000A06928B1056914210FF000FA2846F8E78F
:10565000656AA06135B12E69284614210FF0F6F96C
:105660003546F7E72946656201A8FFF721FF01A942
:1056700004F13800FFF7B6FF294601A8FFF718FF2D
:1056800001A904F14C00FFF7ADFF294601A8FFF77F
:105690000FFF01A904F16000FFF7A4FF284606B040
:1056A00070BD000038B50446FFF7A8FFD4F8985243
:1056B00055B16B69288AC4F8983206F059FF182151
:1056C00028460FF0C3F9F1E7D4F89C5235B12B68A6
:1056D000C4F89C32284616F09BF9F5E7B4F8A80107
:1056E00006F046FFB4F84C0206F042FFD4F8D001B1
:1056F00016F08EF92846064AA4F8A05284F84051C4
:1057000084F8945104F1780106F03AFC284638BD3B
:1057100047590100FFF7C6BF38B504460D46636818
:10572000A360A06838B1C36829469847A368002BD6
:10573000F5D01B69F4E738BD2DE9F04F87B00E4670
:10574000BDF840A0DDF844900746144651464A464D
:105750003046984606F028FF054688BB182C48D0EE
:1057600032D8122C47D0162C14BF00240424FFF783
:1057700019FF3146FFF78AFE8346002841D0FFF724
:1057800003FD00283DD0002358460393059301975D
:10579000ADF80860ADF80A80ADF80CA0CDF8109017
:1057A000FFF7F2FC68B30023ADF8143001A9DBF871
:1057B0004C300BF140009847BDF814300BB3DDB20C
:1057C000284607B0BDE8F08F522C16D0D22C16D147
:1057D000FFF7E8FE436F53B1FFF7E4FE446F38462E
:1057E00007F048FA39460246204604F039F8032407
:1057F000BDE70624BBE70124B9E70224B7E7044666
:10580000B5E70197ADF808608DF80A40ADF80C8057
:10581000ADF80EA0CDF81090FFF7C4FE01A914302A
:10582000FFF77AFFCCE738B504460D466368A360FE
:10583000A06838B1C36829469847A368002BF5D003
:105840001B69F4E738BD2DE9F04387B00D461F46CC
:105850000E9E8046FFF7A6FE2946FFF717FE044678
:1058600030B3FFF785FC18B34FF000092046CDE9AF
:105870000399CDF81490CDF80480ADF80850ADF838
:105880000A70FFF775FC68B104F12C00A36BADF84A
:10589000149001A99847BDF8140018B1C0B207B020
:1058A000BDE8F083049B7360B368BDF80C201A80D8
:1058B0000024CDE90344B3680594ADF80850ADF871
:1058C0000A701B88ADF80C3073680493CDF804801F
:1058D000FFF768FE01A92030FFF7A5FF2046DEE7AD
:1058E000C368184738B504460D466368A360A068CE
:1058F00038B1C36829469847A368002BF5D01B69C7
:10590000F4E738BD08B5034608461146421E042A8E
:105910000AD8DFE802F01209030A0E0003F138008A
:105920009B6B0BB1FFF7DCFF08BD03F14C00DB6C98
:10593000F7E703F160001B6EF3E7012103F10800B4
:10594000FFF7D0FFF0E713B5C388044613F0030F49
:1059500014BF032104210191FFF724FEA2880199BD
:10596000FFF7D0FF02B010BD10B54388122B0446DC
:105970000AD1FFF717FE006870B10368E289218839
:105980001B68BDE8104018470F2B05D1FFF70AFE32
:1059900001210830FFF7A6FF10BD000008B542F650
:1059A00002110248FFF7D7FB08BD00BFD03F00102F
:1059B000D0E90320B2FBF0F07047C0688008704760
:1059C000836803EB810233F82130002063F30F007A
:1059D000538882B063F31F4002B07047037CC068F5
:1059E00090FBF3F07047037CC06890FBF3F07047C6
:1059F000704770477047704710B5142104460FF088
:105A000025F8204610BD10B5102104460FF01EF8F1
:105A1000204610BD10B5142104460FF017F820469B
:105A200010BD10B5142104460FF010F8204610BD2B
:105A300070B58B680446086900FB02320023A3702E
:105A4000A382108820804979012986B01CD1508812
:105A50008DF8043010220DF10501013A01F8013BE7
:105A6000FBD1ADF8160001ADA31C05AE2A4603CA52
:105A7000B24218605960154603F10803F6D1286850
:105A80001860204606B070BD10210DF105000139E7
:105A900000F8013BFBD101238DF80430911C0DF17E
:105AA0000503123251F8040B43F8040B9142F9D16B
:105AB0009DF812209DF8113043EA0223ADF816300C
:105AC00001ADA31C05AE2A4603CAB2421860596054
:105AD000154603F10803F6D1D1E7000070B50C4E6E
