:020000021000EC
:10000000F8FF05101D21030071210300B501010057
:10001000BB010100C1010100C70101000000000097
:1000200000000000000000000000000019020100B4
:100030007321030000000000B1020100C1020100B1
:100040007321030073210300732103007321030054
:100050007321030073210300732103007321030044
:100060007321030073210300732103007321030034
:100070001DE3010005190300D91B03001121030032
:100080001721030073210300732103007321030070
:100090007321030073210300732103007321030004
:1000A00073210300732103007321030073210300F4
:1000B00073210300732103007321030073210300E4
:1000C0000000000000000000000000000000000030
:1000D0000000000000000000000000000000000020
:1000E0000000000000000000000000000000000010
:1000F0000000000000000000000000000000000000
:1001000010B5054C237833B9044B13B10448AFF351
:1001100000800123237010BDC010001000000000FB
:100120009C0D040008B5034B1BB103490348AFF312
:10013000008008BD00000000C41000109C0D0400E9
:10014000154B002B08BF134B9D46A3F5803A0021A9
:100150008B460F461348144A121A27F0B3FE0F4B72
:10016000002B00D098470E4B002B00D09847002062
:10017000002104000D000D48002802D00C481EF09C
:100180006FFB27F0E7FD200029001FF0D5F81EF0D7
:1001900061FD00BF00000800F8FF0510000000002E
:1001A00095F20200C0100010D8B4001061E80200FF
:1001B00000000000102300F007B8202300F004B86E
:1001C000302300F001B840239C46F0B404AE7546DD
:1001D000E80801D3EFF309860E4F0FCE0FC70FBC0F
:1001E0000FC74046494652465B460FC71DCE3100F9
:1001F000A60A00D304316E0900D248311FC7EFF3BD
:1002000009806946EFF3148663C7604601491EF012
:100210000BF800BF706E00101EF0040F0CBFEFF360
:100220000880EFF30980816911F8021C91BB01B5C8
:1002300090E80F10E047BDE800508CE80300244B25
:1002400093E80600914208BF704741B91EF0100FB5
:1002500010D12049086820F0010008600AE02CE96C
:10026000F00F1EF0100F08BF2CED108AC1F838C037
:1002700081F822E01A6092F82210906B61F0FF0E74
:100280001EF0100F08BFB0EC108AB0E8F00F80F33A
:1002900009887047104A13689942FAD801B552F894
:1002A00021C00FC8E047BDE80050CCF800007047FF
:1002B00001B520F0B5FBBDE80140EFF3098CBEE7C6
:1002C00001B520F075FBBDE80140EFF3098CB6E7FE
:1002D0007004001034EF00E0A0D8030081F000416A
:1002E00002E000BF83F0004330B54FEA41044FEA1B
:1002F000430594EA050F08BF90EA020F1FBF54EAB6
:10030000000C55EA020C7FEA645C7FEA655C00F051
:10031000E2804FEA5454D4EB5555B8BF6D420CDD22
:100320002C4480EA020281EA030382EA000083EAA5
:10033000010180EA020281EA0303362D88BF30BD45
:1003400011F0004F4FEA01314FF4801C4CEA11319B
:1003500002D0404261EB410113F0004F4FEA0333FA
:100360004CEA133302D0524263EB430394EA050F85
:1003700000F0A780A4F10104D5F1200E0DDB02FAF4
:100380000EFC22FA05F2801841F1000103FA0EF288
:10039000801843FA05F359410EE0A5F120050EF14E
:1003A000200E012A03FA0EFC28BF4CF0020C43FA7F
:1003B00005F3C01851EBE37101F0004507D54FF08C
:1003C000000EDCF1000C7EEB00006EEB0101B1F5DC
:1003D000801F1BD3B1F5001F0CD349085FEA300022
:1003E0004FEA3C0C04F101044FEA445212F5800F2D
:1003F00080F09A80BCF1004F08BF5FEA500C50F1CA
:10040000000041EB045141EA050130BD5FEA4C0CAC
:10041000404141EB010111F4801FA4F10104E9D135
:1004200091F0000F04BF01460020B1FA81F308BF2C
:100430002033A3F10B03B3F120020CDA0C3208DDF8
:1004400002F1140CC2F10C0201FA0CF021FA02F1D3
:100450000CE002F11402D8BFC2F1200C01FA02F143
:1004600020FA0CFCDCBF41EA0C019040E41AA2BF68
:1004700001EB0451294330BD6FEA04041F3C1CDA30
:100480000C340EDC04F11404C4F1200220FA04F050
:1004900001FA02F340EA030021FA04F345EA0301FA
:1004A00030BDC4F10C04C4F1200220FA02F001FABC
:1004B00004F340EA0300294630BD21FA04F029463E
:1004C00030BD94F0000F83F4801306BF81F48011D7
:1004D0000134013D4EE77FEA645C18BF7FEA655C4A
:1004E00029D094EA050F08BF90EA020F05D054EA1C
:1004F000000C04BF1946104630BD91EA030F1EBF21
:100500000021002030BD5FEA545C05D14000494124
:1005100028BF41F0004130BD14F580043CBF01F517
:10052000801130BD01F0004545F0FE4141F47001FD
:100530004FF0000030BD7FEA645C1ABF19461046D8
:100540007FEA655C1CBF0B46024650EA013406BFD9
:1005500052EA033591EA030F41F4002130BD00BF98
:1005600090F0000F04BF0021704730B54FF4806455
:1005700004F132044FF000054FF0000150E700BFD6
:1005800090F0000F04BF0021704730B54FF4806435
:1005900004F1320410F0004548BF40424FF0000122
:1005A0003EE700BF42004FEAE2014FEA31014FEA65
:1005B00002701FBF12F07F4393F07F4F81F06051B4
:1005C000704732F07F4208BF704793F07F4F04BFFF
:1005D00041F40021704730B54FF4607401F00045DC
:1005E00021F000411CE700BF50EA010208BF70473C
:1005F00030B54FF000050AE050EA010208BF70472D
:1006000030B511F0004502D5404261EB41014FF495
:10061000806404F132045FEA915C3FF4D8AE4FF09D
:1006200003025FEADC0C18BF03325FEADC0C18BF80
:10063000033202EBDC02C2F1200300FA03FC20FAD1
:1006400002F001FA03FE40EA0E0021FA02F114441E
:10065000BDE600BF70B54FF0FF0C4CF4E06C1CEA37
:1006600011541DBF1CEA135594EA0C0F95EA0C0FA8
:1006700000F0DEF82C4481EA030621EA4C5123EA1B
:100680004C5350EA013518BF52EA033541F480114A
:1006900043F4801338D0A0FB02CE4FF00005E1FBFD
:1006A00002E506F00042E0FB03E54FF00006E1FB47
:1006B00003569CF0000F18BF4EF0010EA4F1FF048A
:1006C000B6F5007F64F5407404D25FEA4E0E6D41CA
:1006D00046EB060642EAC62141EA55514FEAC520DB
:1006E00040EA5E504FEACE2EB4F1FD0C88BFBCF557
:1006F000E06F1ED8BEF1004F08BF5FEA500E50F108
:10070000000041EB045170BD06F0004646EA0101CD
:1007100040EA020081EA0301B4EB5C04C2BFD4EBFF
:100720000C0541EA045170BD41F480114FF0000EF8
:10073000013C00F3AB8014F1360FDEBF002001F066
:10074000004170BDC4F10004203C35DA0C341BDCE0
:1007500004F11404C4F1200500FA05F320FA04F0B2
:1007600001FA05F240EA020001F0004221F00041E6
:1007700010EBD37021FA04F642EB06015EEA430E59
:1007800008BF20EAD37070BDC4F10C04C4F1200589
:1007900000FA04F320FA05F001FA04F240EA02003C
:1007A00001F0004110EBD37041F100015EEA430E0D
:1007B00008BF20EAD37070BDC4F1200500FA05F22D
:1007C0004EEA020E20FA04F301FA05F243EA0203AC
:1007D00021FA04F001F0004121FA04F220EA0200BB
:1007E00000EBD3705EEA430E08BF20EAD37070BD01
:1007F00094F0000F0FD101F00046400041EB0101E1
:1008000011F4801F08BF013CF7D041EA060195F0C2
:10081000000F18BF704703F00046520043EB03037C
:1008200013F4801F08BF013DF7D043EA0603704769
:1008300094EA0C0F0CEA135518BF95EA0C0F0CD074
:1008400050EA410618BF52EA4306D1D181EA0301BA
:1008500001F000414FF0000070BD50EA410606BFB4
:100860001046194652EA430619D094EA0C0F02D1F9
:1008700050EA013613D195EA0C0F05D152EA03363E
:100880001CBF104619460AD181EA030101F000415C
:1008900041F0FE4141F470014FF0000070BD41F0A5
:1008A000FE4141F4780170BD70B54FF0FF0C4CF47F
:1008B000E06C1CEA11541DBF1CEA135594EA0C0F9E
:1008C00095EA0C0F00F0A7F8A4EB050481EA030EEB
:1008D00052EA03354FEA013100F088804FEA0333D2
:1008E0004FF0805545EA131343EA12634FEA0222A0
:1008F00045EA111545EA10654FEA00260EF0004161
:100900009D4208BF964244F1FD0404F5407402D2B2
:100910005B084FEA3202B61A65EB03055B084FEA43
:1009200032024FF480104FF4002CB6EB020E75EB40
:10093000030E22BFB61A754640EA0C005B084FEA68
:100940003202B6EB020E75EB030E22BFB61A7546E5
:1009500040EA5C005B084FEA3202B6EB020E75EB30
:10096000030E22BFB61A754640EA9C005B084FEAA8
:100970003202B6EB020E75EB030E22BFB61A7546B5
:1009800040EADC0055EA060E18D04FEA051545EAA4
:1009900016754FEA06164FEAC30343EA52734FEA4D
:1009A000C2025FEA1C1CC0D111F4801F0BD141EAC6
:1009B00000014FF000004FF0004CB6E711F4801F2B
:1009C00004BF01430020B4F1FD0C88BFBCF5E06F0B
:1009D0003FF6AFAEB5EB030C04BFB6EB020C5FEA1B
:1009E000500C50F1000041EB045170BD0EF0004E70
:1009F0004EEA113114EB5C04C2BFD4EB0C0541EAA2
:100A0000045170BD41F480114FF0000E013C90E69E
:100A100045EA060E8DE60CEA135594EA0C0F08BF62
:100A200095EA0C0F3FF43BAF94EA0C0F0AD150EA61
:100A300001347FF434AF95EA0C0F7FF425AF1046F4
:100A400019462CE795EA0C0F06D152EA03353FF41C
:100A5000FDAE1046194622E750EA410618BF52EA99
:100A600043067FF4C5AE50EA41047FF40DAF52EA6D
:100A700043057FF4EBAE12E74FF0FF3C06E000BF0A
:100A80004FF0010C02E000BF4FF0010C4DF804CD17
:100A90004FEA410C7FEA6C5C4FEA430C18BF7FEAD7
:100AA0006C5C1BD001B050EA410C0CBF52EA430C05
:100AB00091EA030F02BF90EA020F0020704710F185
:100AC000000F91EA030F58BF994208BF90422CBF14
:100AD000D8176FEAE37040F0010070474FEA410C0D
:100AE0007FEA6C5C02D150EA013C07D14FEA430C2B
:100AF0007FEA6C5CD6D152EA033CD3D05DF8040B9C
:100B0000704700BF8446104662468C4619466346CD
:100B100000E000BF01B5FFF7B7FF002848BF10F1A4
:100B2000000F01BD4DF808EDFFF7F4FF0CBF0120E9
:100B300000205DF808FB00BF4DF808EDFFF7EAFF65
:100B400034BF012000205DF808FB00BF4DF808ED20
:100B5000FFF7E0FF94BF012000205DF808FB00BF15
:100B60004DF808EDFFF7CEFF94BF012000205DF89F
:100B700008FB00BF4DF808EDFFF7C4FF34BF0120AC
:100B800000205DF808FB00BF4FEA410C7FEA6C5C77
:100B900002D150EA013C0AD14FEA430C7FEA6C5C77
:100BA00002D152EA033C02D14FF0000070474FF0EF
:100BB000010070474A0011D212F5001211D20DD572
:100BC0006FF47873B3EB62520ED44FEAC12343F053
:100BD000004343EA505323FA02F070474FF00000FD
:100BE000704750EA013002D14FF0FF3070474FF0AC
:100BF000000070474FEA4102B2F1E04324BFB3F571
:100C0000001CDCF1FE5C0DD901F0004C4FEAC00283
:100C10004CEA5070B2F1004F40EB830008BF20F067
:100C20000100704711F0804F21D113F13872BCBF21
:100C300001F00040704741F480114FEA5252C2F176
:100C40001802C2F1200C10FA0CF320FA02F018BFBF
:100C500040F001004FEAC1234FEAD32303FA0CFC12
:100C600040EA0C0023FA02F34FEA4303CCE77FEAA1
:100C7000625307D150EA01331EBF4FF0FE4040F4EB
:100C80004000704701F0004040F0FE4040F400009A
:100C9000704700BF7BB972B90029BEBF00204FF07A
:100CA000004106E008BF00281CBF6FF000414FF074
:100CB000FF3000F0BFB9ADF1080C6DE904CE00299A
:100CC00009DB002B1ADB00F04DF8DDF804E0DDE96C
:100CD000022304B07047404261EB4101002B1BDB53
:100CE00000F040F8DDF804E0DDE9022304B0404202
:100CF00061EB4101524263EB43037047524263EBA5
:100D0000430300F02FF8DDF804E0DDE9022304B02E
:100D1000404261EB41017047524263EB430300F0F4
:100D200021F8DDF804E0DDE9022304B0524263EB70
:100D30004303704753B94AB9002908BF00281CBFB4
:100D40004FF0FF314FF0FF3000F074B9ADF1080CF7
:100D50006DE904CE00F006F8DDF804E0DDE90223D9
:100D600004B070472DE9F047089E04468846002BE2
:100D700040F085808A42154648D9B2FA82F24AB1DB
:100D8000C2F1200701FA02F320FA07F7954047EA7B
:100D9000030894404FEA154E230CB8FBFEF71FFAE8
:100DA00085FC0EFB178843EA084307FB0CF19942C8
:100DB00009D9EB1807F1FF3080F0E380994240F247
:100DC000E080023F2B445B1AA4B2B3FBFEF00EFBA3
:100DD000103344EA034400FB0CFCA44509D92C1948
:100DE00000F1FF3380F0CB80A44540F2C880023888
:100DF0002C4440EA0740A4EB0C0400271EB1D44069
:100E00000023C6E900433946BDE8F087002A53D0E5
:100E1000B2FA82F2002A40F0B680491B4FEA154E22
:100E20001FFA85F80127B1FBFEFC230C0EFB1C11F9
:100E300043EA014308FB0CF1994207D9EB180CF186
:100E4000FF3002D2994200F2EC808446591AA3B2D4
:100E5000B1FBFEF00EFB101443EA044408FB00F85B
:100E6000A04507D92C1900F1FF3302D2A04500F2AA
:100E7000DC801846A4EB080440EA0C40BEE78B4235
:100E800008D9002E78D00027C6E900013846394637
:100E9000BDE8F087B3FA83F77FB98B4202D3824271
:100EA00000F2BD80841A61EB030301209846002EF6
:100EB000A9D0C6E90048A6E7FFDEC7F12005BB4080
:100EC00022FA05FC4CEA030C01FA07F420FA05F8B3
:100ED00021FA05F34FEA1C4E48EA0404B3FBFEF97D
:100EE000210C0EFB19331FFA8CF841EA034309FB6E
:100EF00008FA9A4502FA07F200FA07F10BD91CEB3F
:100F0000030309F1FF3080F088809A4540F2858024
:100F1000A9F102096344A3EB0A03A4B2B3FBFEF0F8
:100F20000EFB103344EA034400FB08F8A04508D93F
:100F30001CEB040400F1FF336BD2A04569D90238E1
:100F4000644440EA0940A4EB0804A0FB02894C4534
:100F5000C6464B4654D351D0002E69D0B1EB0E0299
:100F600064EB030404FA05F522FA07F3FC401D4381
:100F7000C6E90054002746E73746304643E718469F
:100F800037E707461FE7C2F1200320FA03F7954031
:100F900001FA02F021FA03F34FEA154E3843010C2F
:100FA000B3FBFEF71FFA85F80EFB173341EA034146
:100FB00007FB08F38B4204FA02F407D9691807F11A
:100FC000FF3C28D28B4226D9023F2944CB1A81B25A
:100FD000B3FBFEF00EFB103341EA034100FB08F3C4
:100FE0008B4207D9691800F1FF3C10D28B420ED911
:100FF00002382944C91A40EA074714E74145ABD2F1
:10100000B8EB020E69EB0C0201381346A4E7604608
:10101000F0E7184695E76746D8E781467BE738460C
:1010200045E7ACF1020C2B4410E702382C4421E7D1
:101030003746E8E6704700BF10F8012B11F8013B76
:10104000012A28BF9A42F7D0D01A7047034613F8F6
:10105000012B002AFBD1181A0138704738B500223D
:10106000002304460D46FFF767FD28B920462946B0
:10107000BDE8384000F00AB8204605F1004100F014
:1010800005F8404261EB410138BD00BFD0B50022F8
:101090000B4B06460F46FFF7DDFAFFF78BFD0446C4
:1010A000FFF75EFA0022074BFFF7D4FA02460B4621
:1010B00030463946FFF716F9FFF77CFD2146D0BDD3
:1010C0000000F03D0000F04110B5034B0360044602
:1010D00003F0B0F8204610BD78A3030010B5034B11
:1010E00003600446FFF7F0FF204610BD88A303000D
:1010F00010B5034B0360044603F09CF8204610BD76
:1011000068A3030010B50446FFF7DEFF20460C215C
:101110001DF0EEFD204610BD10B50446FFF7DEFFC2
:1011200020460C211DF0E4FD204610BD10B50446FC
:10113000FFF7DEFF20460C211DF0DAFD204610BD32
:10114000012203F0FCB838B5044604F197050846BF
:101150000A2229460BF08BFD29462046BDE838407F
:1011600027F02EB810B52DED028BFDEEC08AB0EE43
:10117000408A18EE901A0446FFF7E5FFF8EEE88A79
:101180000A4938EE688A204627F01AF89FED080AC7
:10119000B0EEC88A28EE008A2046FDEEC87A17EE27
:1011A000901AFFF7D0FFBDEC028B10BD89A603009B
:1011B00000007A4470B505460E46011D002027F058
:1011C0001FFE0446286020B126F0B1FB30600120EC
:1011D00070BD034903480BF073F82046F8E700BFE1
:1011E000D5A50300E821001070B505460E46011D87
:1011F000002027F005FE0446286040B126F094FB4D
:1012000051EC100BFFF7F6FC3060012070BD034974
:1012100003480BF055F82046F8E700BFD5A50300BA
:10122000E821001010B50021044603200BF0D6FA87
:1012300000210F200BF0D2FA04F11401FF29A8BFFE
:10124000FF2110200BF04EFA21460020BDE810408F
:101250000BF048BA10B50021044610200BF0BEFA7E
:10126000002108460BF0BAFA04F11401FF29A8BFC7
:10127000FF2103200BF036FA21460F20BDE8104075
:101280000BF030BA10B50021044610200BF0A6FA7E
:1012900000210F200BF0A2FA04F1140103200BF03F
:1012A00021FA21460020BDE810400BF01BBA10B512
:1012B0000021044603200BF091FA002108460BF0B0
:1012C0008DFA214610200BF00DFA21460F20BDE8C3
:1012D00010400BF007BA08B5002103200BF002FA0A
:1012E000002110200BF0FEF9002108460BF0FAF95E
:1012F00000210F20BDE808400BF0F4B970B51D4C7B
:10130000F2B00E4615462146024668461DF0FAFE2A
:101310003246214626A81DF0F5FE2A4621464CA855
:10132000154C164D1DF0EEFE002323706946204635
:1013300026F046FF2946204626F042FF26A92046F1
:1013400026F03EFF2946204626F03AFF0C4D4CA9D8
:10135000204626F035FF21460A48FFF7F1FE0A49EC
:1013600028460AF093FF214628460AF0A9FF72B0EA
:1013700070BD00BFCFD20300BC12001025A4030033
:10138000E8210010B012001087A4030038B50BF05C
:1013900073FA044634480AF001FC33480AF004FCAE
:1013A00018B901200BF07AFAF7E72F480AF00EFC83
:1013B00005462D480AF0EFFB2B480AF0F2FB0BF034
:1013C0005BFA2A49041B2A480AF060FF0A222146D8
:1013D00027480AF0BFFF274925480AF057FF0A228D
:1013E000294623480AF0B6FF21480AF057FF214654
:1013F00001222846FFF782FF0BF03EFA04461E4802
:101400000AF0CCFB1C480AF0CFFB18B901200BF006
:1014100045FAF7E718480AF0D9FB054616480AF0DE
:10142000BAFB15480AF0BDFB0BF026FA1349041B62
:101430000F480AF02BFF0A2221460D480AF08AFFC6
:101440000F490B480AF022FF29460A2208480AF0F1
:1014500081FF07480AF022FF214628460222BDE804
:101460003840FFF74BBF00BF3411001027A4030022
:10147000E821001041A403004811001057A4030004
:1014800071A4030070B5214C0E253226FFF77EFFB4
:10149000013EFBD11E491F480AF012FF21461D489C
:1014A0000AF00EFF1C491B480AF00AFF21461948A2
:1014B0000AF006FF164917480AF002FF41F65830B5
:1014C0000BF0ECF9214613480AF0FAFE13491148D3
:1014D0000AF0F6FE21460F480AF0F2FE40F6B83058
:1014E0000BF0DCF90A490B480AF0EAFE013DCCD1C9
:1014F000074908480AF0E4FE094906480AF0E0FEF8
:1015000003490448BDE870400AF0DABE87A603002C
:1015100031D20300E821001085A503009DA503003A
:10152000B7A503002DE9F0413748374D374F384C08
:101530000AF034FB37480AF031FB0BF09DF9804686
:101540000BF09AF941F28733A0EB0800984259D882
:1015500028460AF029FB38B328460AF037FB06462E
:1015600028460AF018FB28460AF01BFB394620469D
:101570000AF08CFE0BF080F90A22014620460AF0A0
:10158000F5FE254920460AF081FE0A223146204612
:101590000AF0E2FE0BF070F9012201463046FFF737
:1015A000ADFE28460AF0FAFA1A480AF0FDFA0028B9
:1015B000C6D018480AF00AFB064616480AF0EBFAAD
:1015C00014480AF0EEFA394620460AF05FFE0BF0A6
:1015D00053F90A22014620460AF0C8FE0F49204668
:1015E0000AF054FE31460A2220460AF0B5FE0BF0FE
:1015F00043F9022201463046FFF780FE05480AF013
:10160000CDFA9DE7BDE8F0813411001061A503001B
:10161000E82100104811001065A5030075A503001E
:1016200010B5041D2DED028B204609F079F82046F7
:10163000B0EE408A09F07CF8F0EE400AB0EE480ABD
:1016400025F05EF8DFED0C7A60EE277A17EE900A4F
:10165000FEF7A8FF06A3D3E90023FFF725F9FFF75C
:10166000C9FABDEC028B00EE100A10BDAFF300808A
:10167000182D4454FB2109400000344300000000B1
:1016800010B5041D2DED028B204609F04DF82046C3
:10169000B0EE408A09F04CF8F0EE400AB0EE480A8D
:1016A00025F02EF8DFED0C7A60EE677A17EE900ADF
:1016B000FEF778FF06A3D3E90023FFF7F5F8FFF75D
:1016C00099FABDEC028B00EE100A10BDAFF300805A
:1016D000182D4454FB2109400000344338B5043030
:1016E0002DED028B10EE104AB0EE608A09F06EF814
:1016F0002046F0EE408AFEF755FF68EE887A0446F1
:1017000017EE900A0D46FEF74DFF0022144BFFF72F
:10171000CBF802460B4620462946FEF7E3FDFFF7CD
:1017200069FADFED107A00EE100AB4EEE70AF1EE86
:1017300010FADFED0D7A44BFB0EEC00A30EE670A52
:10174000BDEC028B48BF37EEC00AB4EEE70AF1EEFB
:1017500010FAC4BF30EE670A30EE670A38BD00BF2A
:1017600000408F40000034C30000344338B50430DB
:101770002DED028B10EE104AB0EE608A09F022F8CF
:101780002046F0EE408AFEF70DFF68EE887A0446A8
:1017900017EE900A0D46FEF705FF0022144BFFF7E7
:1017A00083F802460B4620462946FEF79BFDFFF7CD
:1017B00021FADFED107A00EE100AB4EEE70AF1EE3E
:1017C00010FADFED0D7A44BFB0EEC00A30EE670AC2
:1017D000BDEC028B48BF37EEC00AB4EEE70AF1EE6B
:1017E00010FAC4BF30EE670A30EE670A38BD00BF9A
:1017F00000408F40000034C30000344338B504304B
:101800002DED028B10EE104AB0EE608A08F0E2FF78
:101810002046F0EE408AFEF7C5FE68EE887A044660
:1018200017EE900A0D46FEF7BDFE0022144BFFF79F
:101830003BF802460B4620462946FEF753FDFFF7CC
:10184000D9F9DFED107A00EE100AB4EEE70AF1EEF6
:1018500010FADFED0D7A44BFB0EEC00A30EE670A31
:10186000BDEC028B48BF37EEC00AB4EEE70AF1EEDA
:1018700010FAC4BF30EE670A30EE670A38BD00BF09
:1018800000408F40000034C300003443F8B5224CC0
:10189000224D2DED048B00230F4601462046F0EE2D
:1018A000608AB0EE418A16462370B0EE409AFFF788
:1018B0004AFC2946204626F083FCB0EE490A204621
:1018C000FFF750FC2946204626F07AFCB0EE680A65
:1018D0002046FFF747FC2946204626F071FCB0EE73
:1018E000480A2046FFF73EFC2946204626F068FCC1
:1018F00039462046FFF727FC2946204626F060FCA3
:1019000031462046FFF71FFC21460548FFF718FC2B
:10191000BDEC048BF8BD00BFBC12001025A4030071
:10192000B01200102DE9F84F314C324F324E0025E5
:101930008046894692469B4625703B68AB4251DD06
:1019400058F825102046FFF7FEFB3146204626F0CA
:1019500037FC59F825102046FFF7F5FB31462046A5
:1019600026F02EFC5AF825102046FFF7ECFB3146F6
:10197000204626F025FC5BF825102046FFF7E3FB08
:101980003146204626F01CFC0A9B204653F82510C1
:10199000FFF7D9FB3146204626F012FC0B9B204670
:1019A00053F82510FFF7CFFB3146204626F008FC00
:1019B0000C9B204653F82510FFF7C5FB3146204607
:1019C00026F0FEFB0D9B204653F82510FFF7BBFBCE
:1019D0003B68013BAB4203D03146204626F0F0FB8A
:1019E0000135AAE702490548FFF7AAFBBDE8F88FD1
:1019F000BC1200100801001025A40300B012001052
:101A00002DE9F84F2C4C2D4F2D4E00258046894650
:101A100092469B4625703B68AB4247DD58F825103F
:101A20002046FFF790FB3146204626F0C9FB59F8C7
:101A300025102046FFF787FB3146204626F0C0FBE5
:101A40005AF825102046FFF77EFB3146204626F047
:101A5000B7FB5BF825102046FFF775FB31462046A3
:101A600026F0AEFB0A9B204653F82510FFF76BFBD0
:101A70003146204626F0A4FB0B9B204653F8251048
:101A8000FFF761FB3146204626F09AFB0C9B20466F
:101A900053F82510FFF757FB3B68013BAB4203D0DF
:101AA0003146204626F08CFB0135B4E70249054853
:101AB000FFF746FBBDE8F88FBC12001008010010CC
:101AC00025A40300B01200102DE9F04F2DED068B78
:101AD00089B00AF0D1FE0546044671489FED718A2F
:101AE000714EFFF79DFD6E48F0EE408AFFF7C8FD8E
:101AF0006B48B0EE409AFFF793FD6948F0EE409ACC
:101B0000FFF7BEFD0FF2881BDBE900ABB0EE40AA89
:101B10000AF0B2FE41F28733401B984200F2B280D5
:101B2000304608F09FFE002878D0314602A808F021
:101B30008DFD0AF0A1FE001B07EE900AB0EE680AC8
:101B4000F8EE670A5648FFF7C9FDF0EE408A0AF042
:101B500093FE001B07EE900AB0EE490AF8EE670A02
:101B60004F48FFF703FEB0EE409A0AF085FE001BD7
:101B700007EE900AB0EE480AF8EE670A4848FFF709
:101B80003DFEB0EE408A0AF077FE04464448FFF777
:101B900047FD18EE900A8DED010AFEF703FD3EA306
:101BA000D3E90023FEF756FD9DED010A804610EEB5
:101BB000100A8946FEF7F6FC52465B46FEF74AFDE0
:101BC00002460B4640464946FEF78EFBFFF712F8E9
:101BD00009EE900A3248FFF753FD19EE100A8DED19
:101BE000010AFEF7DFFC2CA3D3E90023FEF732FD48
:101BF0009DED010A804610EE100A8946FEF7D2FCE0
:101C000052465B46FEF726FD02460B4640464946D5
:101C1000FEF76AFBFEF7EEFF0AEE100A2348244F98
:101C200009F0C2FF60B1214809F0D0FF38601F48B9
:101C300009F0B1FF1D4809F0B4FF1C4809F0AEFFE0
:101C40001C48DFF8748009F0AFFF68B1194809F04B
:101C5000BDFFC8F80000174809F09DFF154809F0BE
:101C6000A0FF144809F09AFF0AF006FED8F80020F9
:101C70003968B0EE481AF0EE4A0AB0EE690AFFF78A
:101C800005FE45E709B0BDEC068BBDE8F08F00BF4F
:101C90009A9999999999B93FCDCCCCCCCCCCEC3FC1
:101CA0005C110010000000006011001034110010E1
:101CB000241100104811001028110010000000002D
:101CC0002DE9F04F2DED068BB5B00AF0D5FD064697
:101CD00005468B489FED8B9ADFF834B2FFF7A0FCE6
:101CE0008748B0EE408AFFF7CBFC8548F0EE408A8B
:101CF000FFF796FC8248F0EE409AFFF7C1FC82485D
:101D0000B0EE40AA09F04AFF804809F047FF0024DE
:101D1000A24627460AF0B0FD41F28733801B984265
:101D200000F2E180584608F09DFD00287AD059461F
:101D30002EA808F08BFC0AF09FFD401B07EE900ACE
:101D4000B0EE480AF8EE670A6D48FFF7C7FCB0EE40
:101D5000408A0AF091FD401B07EE900AB0EE680A37
:101D6000F8EE670A6648FFF701FDF0EE408A0AF0D8
:101D700083FD401B07EE900AB0EE490AF8EE670AB1
:101D80005F48FFF73BFDB0EE409A0AF075FD05464F
:101D90005B48FFF745FC18EE100A8DED050AFEF7CB
:101DA00001FC53A3D3E90023FEF754FC9DED050A83
:101DB000804610EE100A8946FEF7F4FB4EA3D3E9E5
:101DC0000023FEF747FC02460B4640464946FEF715
:101DD0008BFAFEF70FFF09EE900A4948FFF750FC17
:101DE00018EE900A8DED050AFEF7DCFB40A3D3E95F
:101DF0000023FEF72FFC9DED050A804610EE100A29
:101E00008946FEF7CFFB3CA3D3E90023FEF722FC73
:101E100002460B4640464946FEF766FAFEF7EAFEE2
:101E20000AEE100A384809F0BFFE60B1364809F0E2
:101E3000CDFE0746344809F0AEFE334809F0B1FE46
:101E4000314809F0ABFE314809F0AEFE60B12F48D1
:101E500009F0BCFE82462D4809F09DFE2B4809F092
:101E6000A0FE2A4809F09AFE022C1DDC0AF004FDAF
:101E7000FDEEE97A34AB03EB840343ED297AFDEE02
:101E8000CA7A002243ED247AFDEEC97A43F8B80CF1
:101E900043ED1F7A43F8687C43F854AC43F8402C78
:101EA00043F82C2C013435E713200AF083F904465B
:101EB00013200AF07FF90AF0C1FCB0FA80F1490959
:101EC00020460AF08BFC29AB039324AB02931FAB93
:101ED00001931AAB009310AA15AB0BA906A8FFF744
:101EE00021FD002416E735B0BDEC068BBDE8F08F70
:101EF000CDCCCCCCCCCCEC3F9A9999999999B93F5F
:101F00005C11001000000000341100104811001096
:101F1000601100100A4B10B510EE100A83ED000A94
:101F2000FEF740FB074C41EC100B022120460AF063
:101F3000F3FA20460449BDE810400AF0C1B900BFD9
:101F400010010010E8210010C0A5030000000000EF
:101F50002DE9F04F2DED068BB1B006A9A848DFEDB5
:101F6000A99ADFF8B4B2FFF725F90AF085FC82469A
:101F70000646A548FFF754FBA348F0EE408AFFF75A
:101F80007FFBA148B0EE409AFFF74AFB9E48B0EEB7
:101F900040AAFFF775FB9D48F0EE40AA09F0FEFD50
:101FA0009B4809F0FBFD00252F460AF065FC41F235
:101FB0008733A0EB0A00984200F21381069B9BED49
:101FC000007AFB1A08EE103AF8EEC87A67EE877AC4
:101FD000FDEEE77A17EE904AA4F11F03122B16D9F3
:101FE00004F13103122B40F2D68014F1FF0FC0F23E
:101FF000D880FF2C00F3CD801D2C09DC04F11D03DB
:102000003A2B00F2CA80FFF766F9002403E032247D
:102010002046FFF737F97F4808F024FC00287AD0E3
:102020007C492AA808F012FB0AF026FC801B07EE68
:10203000900AB0EE680AF8EE670A7348FFF74EFBA5
:10204000F0EE408A0AF018FC801B07EE900AB0EE12
:10205000490AF8EE670A6C48FFF788FBB0EE409A31
:102060000AF00AFC801B07EE900AB0EE690AF8EE4F
:10207000670A6548FFF7C2FBF0EE409A0AF0FCFBE6
:1020800006466148FFF7CCFA18EE900A8DED050A76
:10209000FEF788FA56A3D3E90023FEF7DBFA9DED9D
:1020A000050A804610EE100A8946FEF77BFA52A315
:1020B000D3E90023FEF7CEFA02460B4640464946D6
:1020C000FEF712F9FEF796FD0AEE100A4E48FFF7EA
:1020D000D7FA19EE100A8DED050AFEF763FA44A34C
:1020E000D3E90023FEF7B6FA9DED050A804610EE0F
:1020F000100A8946FEF756FA3FA3D3E90023FEF7FC
:10210000A9FA02460B4640464946FEF7EDF8FEF7AF
:1021100071FD0AEE900A3D4809F046FD60B13B486A
:1021200009F054FD0746394809F035FD374809F0F4
:1021300038FD364809F032FD354809F035FD58B113
:10214000334809F043FD324809F025FD304809F0D5
:1021500028FD2F4809F022FD022D25DC0AF08CFB1A
:10216000FDEECA7A30AB03EB850343ED247AFDEE36
:10217000EA7A43F8A40C43ED1F7AFDEEE97A43F8BE
:10218000547C43ED1A7A03ED108A43F82C4C013548
:102190000BE7FF243CE76FF031046042FFF787F85C
:1021A00039E76FF0FE04F8E713200AF003F804465D
:1021B000132009F0FFFF0AF041FBB0FA80F1490952
:1021C00020460AF00BFB25AB029320AB01931BAB1F
:1021D000009311AA16AB0CA907A8FFF711FC002564
:1021E000E3E6FFF778F831B0BDEC068BBDE8F08F81
:1021F000CDCCCCCCCCCCEC3F9A9999999999B93F5C
:10220000C4110010000000005C1100103411001017
:1022100048110010601100101001001000000000B3
:102220002DE9F04F2DED068BB1B00AF025FB82466B
:10223000044697489FED979ADFF864B2FFF7F0F9EC
:102240009348B0EE408AFFF71BFA9148F0EE408ABF
:10225000FFF7E6F98E48F0EE409AFFF711FA8E4844
:10226000B0EE40AA09F09AFC8C4809F097FC78205F
:10227000FFF708F80025782304932F462E460AF02E
:10228000FBFA41F28733A0EB0A00984200F2F0809B
:10229000731EB3F5F97F00F2CA8001350A2D03DD04
:1022A000FFF719F800230493584608F0DBFA0028DA
:1022B0007AD059462AA808F0C9F90AF0DDFA001BBD
:1022C00007EE900AB0EE480AF8EE670A7048FFF78A
:1022D00005FAB0EE408A0AF0CFFA001B07EE900A2A
:1022E000B0EE680AF8EE670A6948FFF73FFAF0EEC9
:1022F000408A0AF0C1FA001B07EE900AB0EE490AC4
:10230000F8EE670A6248FFF779FAB0EE409A0AF0F1
:10231000B3FA04465E48FFF783F918EE100A8DED14
:10232000050AFEF73FF956A3D3E90023FEF792F919
:102330009DED050A804610EE100A8946FEF732F937
:1023400051A3D3E90023FEF785F902460B46404628
:102350004946FDF7C9FFFEF74DFC09EE900A4C48CF
:10236000FFF78EF918EE900A8DED050AFEF71AF9BF
:1023700043A3D3E90023FEF76DF99DED050A8046DE
:1023800010EE100A8946FEF70DF93FA3D3E90023AA
:10239000FEF760F902460B4640464946FDF7A4FFAA
:1023A000FEF728FC0AEE100A3B4809F0FDFB002866
:1023B0003FD0394809F00AFC8046374809F0EBFB6A
:1023C000354809F0EEFB344809F0E8FB334809F0E2
:1023D000EBFB58B1314809F0F9FB304809F0DBFB61
:1023E0002E4809F0DEFB2D4809F0D8FB022F22DC35
:1023F0000AF042FAFDEEE97A30AB03EB870343EDD6
:10240000247AFDEECA7AA6F5967643ED1F7AFDEEA4
:10241000C97A049A43F8A40C43ED1A7A43F8548C11
:1024200043F8406C43F82C2C0137464627E700253B
:102430003AE7B046CAE7132009F0BCFE064613206F
:1024400009F0B8FE0AF0FAF9B0FA80F1490930460D
:102450000AF0C4F925AB029320AB01931BAB0093A8
:1024600011AA16AB0CA907A8FFF7CAFA0027DCE7E8
:10247000FEF731FF31B0BDEC068BBDE8F08F00BF39
:10248000CDCCCCCCCCCCEC3F9A9999999999B93FC9
:102490005C11001000000000341100104811001001
:1024A000601100102DE9F04F2DED048BB1B006A99D
:1024B0007B487C4FDFED7C8ADFF8F491FEF794FED9
:1024C0000AF0DAF9824606467848FFF7A9F8774815
:1024D000B0EE409AFFF7D4F87448F0EE409AFFF758
:1024E0009FF87248FFF7CCF8714809F057FB714824
:1024F00009F054FB0025AB46A7F104080AF0BCF92B
:10250000A0EB0A00B0F57A5F80F0C280384608F090
:1025100061F9B3EE098A30EE488A9DED067ABDEE88
:10252000C88AF8EEC87A67EE877AFDEEE77A17EE8A
:10253000904AC4F1640414F1FF0FC0F28980FF2CAB
:1025400005DC002C04DA6042FEF784FE03E0FF2481
:102550002046FEF767FE384608F084F9B0B33946E6
:102560002AA808F073F80AF087F9801B07EE900A92
:10257000B0EE490AF8EE670A4046FFF7AFF8B0EE52
:10258000409A0AF079F9801B07EE900AB0EE690ACA
:10259000F8EE670A4046FFF7E9F8F0EE409A0AF0D5
:1025A0006BF9801B07EE900AB0EE680AF8EE670A36
:1025B0004046FFF723F9F0EE408A0AF05DF906463F
:1025C0004046FFF72DF84046FFF75AF8484609F015
:1025D000EBFA60B1484609F0F9FA8346484609F03B
:1025E000DAFA484609F0DDFA484609F0D7FA3148E8
:1025F00009F0DAFA58B12F4809F0E8FA2D4809F045
:10260000CAFA2C4809F0CDFA2A4809F0C7FA022D77
:1026100021DC0AF031F930AB03EB8503FDEEE87AFB
:1026200043F8A40C1922384643F8902C03ED1F8A76
:1026300043ED1A7A43F854BC059308F0CBF8059B98
:10264000BDEEC00A43F82C4C03ED100A013555E7E6
:102650006FF0FE0477E7132009F0ACFD0446132069
:1026600009F0A8FD0AF0EAF8B0FA80F1490920461D
:102670000AF0B4F825AB029320AB01931BAB009397
:1026800011AA16AB0CA907A8FFF7BAF9002535E780
:10269000FEF721FE31B0BDEC048BBDE8F08F00BF2A
:1026A000C411001060110010000000005C11001047
:1026B00034110010481100102DE9F04F2DED068B5C
:1026C000B5B0C24BC2480A930AA9FEF78DFD0AF0C5
:1026D000D3F88146BF489FEDC08ADFEDC08A9FEDE9
:1026E000C0AADFEDC0AAFEF79BFFBA48FEF7C8FFFD
:1026F000B848FEF795FFB748FEF7C2FFBA48002476
:1027000009F04CFAB94809F049FACDE90544CDF889
:102710002090A246254626465A27A0460994F0EE68
:10272000489A0AF0A9F841F65733A0EB09009842FD
:1027300000F244810AF0A0F883460AF09DF8059B58
:1027400083F0010340F2DC522340ABEB090B9345CD
:1027500094BF002303F00103A0EB0A00B0F57A7FD9
:1027600094BF002003F001000028059B1CBF034616
:10277000002418BFB0EE698A18BFF0EE4A8A0593AC
:102780000AF07AF883460AF077F8069B059A83F0F8
:10279000010322401340ABEB090B40F6B8329345DE
:1027A00094BF002303F00103A0EB0A00B0F57A7F89
:1027B00094BF002003F001000028069B1CBF0346C5
:1027C000002418BFB0EE698A18BFF0EE6A8A06933B
:1027D0000AF052F883460AF04FF8069A86F0010391
:1027E00022401340ABEB090B41F29412934594BF86
:1027F000002303F00103A0EB0A00B0F57A7F94BF39
:10280000002303F001030793002B40F08480079618
:1028100038EE689ABDEEC99A19EE103A0933122BB8
:102820007FD8013584F001060A2DD4BF002606F0BA
:1028300001061EB10AF020F834468246132009F042
:10284000B9FC012109F0CAFF3846FEF71BFDBB4663
:102850003E46674808F006F8F8B165492EA807F02B
:10286000F5FE0AF009F8089BC01A07EE900AB0EED0
:10287000480AF8EE670A5748FEF7C0FFB5EEC00AEF
:10288000F1EE10FA48BFDFED5B7AB0EE408A48BF48
:1028900030EE278A09F0F0FF0890534809F084F9D8
:1028A00060B1514809F092F909904F4809F073F965
:1028B0004D4809F076F94C4809F070F94B4809F099
:1028C00073F940B1494809F066F9484809F069F9D7
:1028D000464809F063F9B8F1020F51DC09F0CCFF6A
:1028E000FDEEE87A34AB03EB880343ED247AFDEE8A
:1028F000C87A099A43F8A40C03ED1F9A43ED1A7A9B
:1029000043F8542C43F8407C43F82C6C08F1010840
:10291000079E5F4605E700249FED2F8ADFED368A8C
:1029200076E79DED0A7AF8EEC97A6FF0FE0367EE5E
:10293000877A1320FDEEE77A17EE905A17EE906A29
:10294000FF2DA8BFFF269E42B8BF1E4609F032FCED
:10295000002109F043FF002D0BDBFE2D30464FF028
:102960000005D4BF3746FF27AB46FEF75BFC2E467B
:102970006FE700257042FEF76DFCAB462F4668E717
:10298000132009F017FC0646132009F013FC09F088
:1029900055FFB0FA80F14909304609F01FFF29AB15
:1029A000029324AB01931FAB009315AA1AAB10A995
:1029B0000BA8FFF725F84FF00008A9E7FEF78BFCFE
:1029C00035B0BDEC068BBDE8F08F00BF0000404085
:1029D000C41100105C11001000003443000061437A
:1029E000000007430000E9423411001048110010B4
:1029F000601100100000B443008073432DE9F04FD4
:102A00002DED068BB1B0B74BB748069306A9FEF77C
:102A1000EBFB09F031FF0646B4489FEDB58ADFEDC8
:102A2000B58ADFEDB59A9FEDB5AADFEDB5AAFEF741
:102A3000F7FDAE48FEF724FEAC48FEF7F1FDAB48CB
:102A4000FEF71EFEAF48002409F0A8F8AE4809F0D2
:102A5000A5F83746A046A346A246A14625460494BB
:102A600009F00AFF44F61F63801B984200F232818E
:102A700009F002FF89F00103B0420CBF002303F00C
:102A800001031BB30593FEF726FC6420FEF7E2FB6F
:102A900040F2DC5009F002FFFEF71DFC4FF47A70A3
:102AA00009F0FCFE7820FEF7EDFB40F2EE2009F085
:102AB000F5FEFEF710FC4FF47A7009F0EFFE059B6F
:102AC0009FED8B8A99460024F0EE698A09F0D4FEC6
:102AD0008AF00103801BB0F5FA6F94BF002303F066
:102AE00001031BB30593FEF7F6FB6420FEF79AFB88
:102AF0004FF47A7009F0D2FEFEF7EDFB4FF47A70D6
:102B000009F0CCFE7820FEF7BDFB40F2EE2009F084
:102B1000C5FEFEF7E0FB4FF47A7009F0BFFE059B9F
:102B20009FED738A9A460024F0EE4A8A09F0A4FECB
:102B30008BF00103801B41F29412904294BF00235A
:102B400003F001031BB30593FEF7C5FB6420FEF7FA
:102B500069FB40F2DC5009F0A1FEFEF7BCFB4FF42C
:102B60007A7009F09BFE7820FEF78CFB40F2EE2095
:102B700009F094FEFEF7AFFB4FF47A7009F08EFE79
:102B8000059B9FED5B8A9B460024F0EE6A8A38EE37
:102B9000689ABDEEC99A19EE103A0933122B73D810
:102BA00008F1010884F00103B8F10A0FD4BF002333
:102BB00003F0010323B1059309F05EFE059B1C465B
:102BC000132009F0F7FA012109F008FE4F4807F039
:102BD00049FEF0B14D492AA807F038FD09F04CFE36
:102BE000C01B07EE900AB0EE480AF8EE670A3F48AD
:102BF000FEF704FEB5EEC00AF1EE10FA48BFDFEDB5
:102C0000447AB0EE408A48BF30EE278A09F034FE9D
:102C100007463C4808F0C8FF60B13A4808F0D6FFC4
:102C20000490384808F0B7FF364808F0BAFF354836
:102C300008F0B4FF344808F0B7FF40B1324808F05C
:102C4000AAFF314808F0ADFF2F4808F0A7FF022D7A
:102C500023DC09F011FEFDEEE87A30AB03EB8503CF
:102C6000049A43ED247AFDEEC87A43F8542C0022EE
:102C700043F8A40C03ED1F9A43ED1A7A43F8402C55
:102C800043F82C2C0135EBE6132009F093FA0021D0
:102C900009F0A4FD4FF0000898E7132009F08AFA24
:102CA0000546132009F086FA09F0C8FDB0FA80F154
:102CB0004909284609F092FD25AB029320AB019308
:102CC0001BAB009311AA16AB0CA907A8FEF798FE40
:102CD0000025C5E6FEF7FFFA31B0BDEC068BBDE876
:102CE000F08F00BF00004040C41100105C110010C4
:102CF0000000344300006143000007430000E94244
:102D0000008073433411001048110010601100104E
:102D10000000B44373B5164C164D09F0ADFD2168A3
:102D20002860401A1449096888421ED9134E144875
:102D3000D6ED007AB6EE007A77EE877A0422012388
:102D40000DEB0201C6ED007ACDED017A01F0E6FA55
:102D500096ED007ADFED0B7AB4EEE77AF1EE10FA39
:102D6000C4BF002333602B68236002B070BD00BF76
:102D70002C110010301100100C0100107C130010F9
:102D8000A412001000401C46D0ED010AD1ED017ADA
:102D900090ED000A91ED007A70EEA70A30EE070A76
:102DA00084B004B07047D0ED010A91ED021AD1ED64
:102DB000031AD0ED035A90ED006AD1ED006A91ED4F
:102DC000017AD0ED027A20EE810A60EEA10A21EEAE
:102DD000251A61EEA51AA6EE260A88B0E6EE070AC5
:102DE000A6EEA71AE7EE271A08B07047D1ED007AD1
:102DF000D0ED010A90ED000A67EEA00A20EE270A46
:102E000084B004B07047D0ED007AF5EE407AF1EE70
:102E100010FA1DBFF7EE006A86EEA77A01200020A7
:102E200018BF81ED007A704710B5804C804BD4ED0F
:102E3000037A94ED027A63EEA77A2DED028BE3EE2E
:102E4000077A96B094ED017ACDED0F7A63EE873A6A
:102E500007EE901A94ED007A8DED021AE7EE033A30
:102E600012A9F8EEE76A93ED007AD3ED017A8DEDC1
:102E7000042A66EEA77A27EE267A08EE100A0EA834
:102E8000CDED052ACDED0E3ACDED031A8DED127A7A
:102E9000CDED137AFFF778FF02A920468DED0A0ADF
:102EA000CDED0B0AFFF77FFF94ED017AD4ED005AC8
:102EB000D4ED037A94ED026A5E4BCDED130A60EE19
:102EC000876A60EEA70AE0EE256A5B4C67EEA17A9E
:102ED000E0EE060A09A90846E6EE017A93ED005AEB
:102EE000CDED151A27EE217A76EE856AA5EE817A68
:102EF000D3ED031A93ED015AD3ED025ADDED0A4AE0
:102F00004E4B8DED120A70EE850A77EEA17A94EDA4
:102F1000015ACDED117A37EE257A67EE857AD4ED38
:102F2000005A8DED107AE0EEA57A27EE057AB8EE1C
:102F3000C86AA6EEA57A9DED0B8A8DED141A25EED2
:102F4000088A67EE857AA5EEA48AE7EE257A93EDE6
:102F5000007ACDED0F0A36EE488A77EE877ACDED0E
:102F60000E6ACDED097A8DED088AFFF74CFFD4ED9E
:102F7000017A9DED117AD4ED006A9DED106A27EE7D
:102F8000877A09A9A6EE867A12A89DED0F6A8DEDC3
:102F9000137A67EE867A9DED0E6AE6EE267ACDED1F
:102FA000127AFFF723FF08A90CA88DED0C0ACDEDCE
:102FB0000D0AFFF71BFF12A90AA88DED120ACDED2D
:102FC000130AFFF7E1FE1E4BDDED0D5A94ED005A9A
:102FD000D4ED014AD3ED026A93ED037ADDED0C7A6C
:102FE00093ED016A8DED060AE5EE656A12A80EA959
:102FF000A4EEE57AD3ED005ACDED146AF1EE677ACE
:10300000A7EEA46AE7EE855A8DED136ACDED125A4C
:103010008DED157AFFF7C7FEDDED067AFDEEE77A56
:1030200017EE900A16B0BDEC028B10BDDC1000103C
:10303000FC100010841200100C11001094120010EB
:1030400014110010000000002DE9F04F2DED068B4B
:10305000B1B006A9B6489FEDB79ADFF8F4B2FEF713
:10306000A9F809F009FC82460646B348FEF7D8FAEB
:10307000B148B0EE408AFEF703FBAF48F0EE408A5D
:10308000FEF7CEFAAC48F0EE409AFEF7F9FAAB48FC
:10309000B0EE40AA08F082FDA94808F07FFD0025A7
:1030A000A8462F4609F0E8FB41F28733A0EB0A005F
:1030B000984200F22D81069B9BED007AA8EB03035A
:1030C00007EE903AF8EEE77A67EE877AFDEEE77A58
:1030D00017EE904AA4F11F03122B16D904F1310305
:1030E000122B40F2EF8014F1FF0FC0F2F180FF2CA1
:1030F00000F3E6801D2C09DC04F11D033A2B00F2DD
:10310000E380FEF7E8F8002403E032242046FEF7CF
:10311000B9F88C4807F0A6FB00287AD089492AA87C
:1031200007F094FA09F0A8FB801B07EE900AB0EEB6
:10313000480AF8EE670A8048FEF7D0FAB0EE408AF7
:1031400009F09AFB801B07EE900AB0EE680AF8EED1
:10315000670A7948FEF70AFBF0EE408A09F08CFB1B
:10316000801B07EE900AB0EE490AF8EE670A724833
:10317000FEF744FBB0EE409A09F07EFB06466E482F
:10318000FEF74EFA18EE100A8DED050AFDF70AFA61
:1031900063A3D3E90023FDF75DFA9DED050A8046A0
:1031A00010EE100A8946FDF7FDF95FA3D3E900236D
:1031B000FDF750FA02460B4640464946FDF794F8A3
:1031C000FDF718FD09EE900A5B48FEF759FA18EE74
:1031D000900A8DED050AFDF7E5F951A3D3E9002327
:1031E000FDF738FA9DED050A804610EE100A894673
:1031F000FDF7D8F94CA3D3E90023FDF72BFA0246DB
:103200000B4640464946FDF76FF8FDF7F3FC0AEE22
:10321000100A4A4808F0C8FC60B1484808F0D6FCDB
:103220000746464808F0B7FC444808F0BAFC434853
:1032300008F0B4FC424808F0B7FC58B1404808F028
:10324000C5FC3F4808F0A7FC3D4808F0AAFC3C48F4
:1032500008F0A4FC3C4B3D4ADFED363A93ED001AF2
:10326000D3ED011A93ED022AD3ED032A92ED000A61
:10327000D2ED010A07EE907A21463846B8EEE73AD9
:10328000FFF7D2FD022D804625DC09F0F5FAFDEEB0
:10329000E97A30AB03EB850343ED247AFDEECA7A7D
:1032A00043F8A40C43ED1F7AFDEEC97A43F8547C31
:1032B00043ED1A7A43F8408C43F82C4C0135F1E683
:1032C000FF2423E76FF031046042FDF7F0FF20E7B1
:1032D0006FF0FE04F8E7132008F06CFF044613209B
:1032E00008F068FF09F0AAFAB0FA80F1490920460F
:1032F00009F074FA25AB029320AB01931BAB00934A
:1033000011AA16AB0CA907A8FEF77AFB0025C9E69F
:10331000FDF7E1FF31B0BDEC068BBDE8F08F00BFDB
:10332000CDCCCCCCCCCCEC3F9A9999999999B93F1A
:10333000C4110010000000005C11001034110010D6
:10334000481100106011001074120010801300105A
:1033500010010010000000002DE9F04F2DED068B4C
:10336000B1B009F089FA83460646B1489FEDB19A9B
:10337000FEF756F9AE48B0EE408AFEF781F9AC4848
:10338000F0EE408AFEF74CF9A948F0EE409AFEF7BD
:1033900077F9A948B0EE40AA08F000FCA74808F069
:1033A000FDFBFA200027FDF76DFFFA23BA460493D0
:1033B0003D463C4609F060FA41F28733A0EB0B0032
:1033C000984200F2268109F057FA87F00108A0EB35
:1033D0000B0040F2B633984294BF4FF0000808F05B
:1033E0000108B8F1000F00F0E1800AF1010ABAF11A
:1033F000010F00F0DD80FA20FDF759FF4FF4167041
:1034000009F04CFAFDF767FF322009F047FAFA207D
:10341000FDF74DFF002347460493894807F022FA41
:1034200000287AD086492AA807F010F909F024FA72
:10343000801B07EE900AB0EE480AF8EE670A7C4857
:10344000FEF74CF9B0EE408A09F016FA801B07EE41
:10345000900AB0EE680AF8EE670A7548FEF786F93A
:10346000F0EE408A09F008FA801B07EE900AB0EEF1
:10347000490AF8EE670A6E48FEF7C0F9B0EE409AC6
:1034800009F0FAF906466A48FEF7CAF818EE100A7B
:103490008DED050AFDF786F861A3D3E90023FDF75A
:1034A000D9F89DED050A804610EE100A8946FDF711
:1034B00079F85DA3D3E90023FDF7CCF802460B466B
:1034C00040464946FCF710FFFDF794FB09EE900AD1
:1034D0005748FEF7D5F818EE900A8DED050AFDF76E
:1034E00061F84FA3D3E90023FDF7B4F89DED050A79
:1034F000804610EE100A8946FDF754F84AA3D3E936
:103500000023FDF7A7F802460B4640464946FCF764
:10351000EBFEFDF76FFB0AEE100A474808F044FB8C
:10352000002847D0444808F051FB0446424808F0C0
:1035300032FB414808F035FB3F4808F02FFB414B78
:10354000414A0499DFED3B3A93ED001AD3ED011A9D
:1035500093ED022AD3ED032A92ED000AD2ED010A7F
:1035600007EE904A2046B8EEE73AFFF75DFC022DE1
:10357000804631DC09F080F9FDEEE97A30AB03EBEF
:10358000850343ED247AFDEECA7A049A43ED1F7A4F
:10359000FDEEC97A43F8A40C43ED1A7A43F8544C73
:1035A00043F8408C43F82C2C013503E7C24634E73E
:1035B000002732E7022DC2D1DDE91B431C1BDDE9E8
:1035C00007031B1A94FBF3F809F056F9089C041B37
:1035D0001C9808FB0404B2E7132008F0EBFD054635
:1035E000132008F0E7FD09F029F9B0FA80F1490944
:1035F000284609F0F3F825AB029320AB01931BABEF
:10360000009311AA16AB0CA907A8FEF7F9F900253B
:10361000D0E6FDF760FE31B0BDEC068BBDE8F08F63
:10362000CDCCCCCCCCCCEC3F9A9999999999B93F17
:103630005C1100100000000034110010481100104F
:10364000601100107412001080130010F0B5AF4824
:10365000F3B000F04FFE0446AC4800F055FE96284B
:1036600033DCAB4A0023984204DDE15C02F8011B25
:103670000133F8E7A74B034400225A73A54C211DE0
:1036800004F10D0025F0BCFB2060002838D024F0A8
:103690004EF90546152800F26381DFE810F0370087
:1036A000480035006700900035009200A600D70062
:1036B0000C010F011201150118011B012401270142
:1036C0002A012D016101300133019349934808F02B
:1036D000DDFD0A229721914808F03CFE90498F4871
:1036E00008F0EEFD8A4A631E963413F8011F02F8B3
:1036F000011BA342F9D1874B002283F8A320BDE729
:103700008849864808F0DCFD73B0F0BD864C8749D7
:1037100000232370204624F053FD21468448FDF702
:103720000FFD84497D4808F0B1FD2146E9E726A94F
:103730007848FDF73FFD0028E6D04CA97548FDF715
:1037400039FD0028E0D07C49744808F09FFD0A222A
:103750002699724808F0FEFD7849704808F096FDF9
:103760004C990A226D4808F0F7FDCDE77449002016
:1037700025F046FB01462060F8B1684624F030FD94
:10378000694B00221A701846694624F019FD01465B
:1037900026A824F025FD6B494CA824F021FD26A97C
:1037A0004CA824F00DFD4CA96148FDF7C9FC614906
:1037B0005A4808F06BFD4CA9A3E76349A1E76349A8
:1037C0009FE76349584C26A824F00AFD09F054F8F5
:1037D000604902464CA81BF095FC4CA926A824F091
:1037E000EFFC0023237026A994E7594F594E4E4D04
:1037F0000524394626A824F0F3FC09F03DF83146AB
:1038000002464CA81BF07EFC4CA926A824F0D8FC4C
:1038100000232B7026A9444824F0D2FC4E4942488C
:1038200024F0CEFC4D49404824F0CAFC09F030FB9E
:103830003D48FDF797FC3C493D48FDF781FC4FF4BE
:103840007A7009F02BF8013CD3D15DE709F014F848
:103850003F4E404D344C074609F00EF841F2873395
:10386000C01B98423FF650AF314626A824F0B8FC62
:1038700009F002F8294602464CA81BF043FC4CA96B
:1038800026A824F09DFC0023237026A9264824F0B6
:1038900097FC3149244824F093FC3049224824F015
:1038A0008FFC09F0F5FA2048FDF75CFC1E49204822
:1038B000FDF746FCD0E7FDF7E5FD25E7FDF732FE15
:1038C00022E7FEF701F91FE7FEF7FAF91CE7FEF71A
:1038D0003FFB19E74CA90F48FDF786FC9DED4C0A0C
:1038E000FEF718FB10E7FEF79BFC0DE7FFF7ACFBBC
:1038F0000AE7FFF731FD07E7FEF7D4FD04E7FEF71F
:10390000DBFE01E7FFF77AF8FEE600BF6812001061
:10391000D1110010C411001093A40300E82100107D
:10392000C2A40300F6A40300BC1200100BA5030000
:10393000B012001087A4030010A5030030D20300CA
:10394000C81100101FA50300D5A503002EA5030074
:1039500044A50300CFD2030025A4030047A503001C
:103960000349044808F092FC0A222946FAE600BFFF
:103970004AA50300E821001008B5044800F0E9FC5E
:1039800018B1BDE80840FFF761BE08BD681200101D
:1039900030B5002503290FDC01F00103002901EBFC
:1039A000D172B8BF5B421C4622F00103234400EBF6
:1039B000830301311D60EDE730BD00002DE9F041CA
:1039C0002DED028B594F5A4D5A485B4C5B4E82B0DD
:1039D00006F0FCFF042339460222284608F082F84C
:1039E0002846574D224631461AF038FF04233946FF
:1039F0000222284608F076F82846524D524F2246B9
:103A000031461AF02BFF5149514E284600F064FE12
:103A10002846504D504922464FF000081AF01EFF2C
:103A20009723CDF8008008224C49284600F048FC36
:103A30002F6028464A4D224631461AF00FFF1222C7
:103A40004849284600F06EFE2846474D4749224621
:103A50001AF004FF9723CDF800801222444928462B
:103A600000F02EFC2246314628462F601AF0F6FE62
:103A700040494148414D24F0B3FB414BD5ED006A2C
:103A8000D3ED007A3F48F1EE677A87EEA67A0024FC
:103A9000046084600421B7EE008A80ED018A80ED25
:103AA000037AFFF775FF95ED007A374B37481C60B6
:103AB000C8EE077A446084600421C3ED017A344B78
:103AC00083ED008A5C604FF082430360C360FFF7C0
:103AD0005FFF3048304B314A1A6080ED008A446005
:103AE000846080ED038A0421FFF752FF2C482D4BA0
:103AF00043602D4B80ED008A8460C3600421FFF792
:103B000047FF2A4B2A482B4A1C605A602A4B036005
:103B1000C360446084600421FFF73AFF274B1C60B8
:103B20005C6002B0BDEC028BBDE8F081681A001049
:103B3000341100105C1100100001001035BB0100B1
:103B4000481100109812001068A3030090A303000E
:103B5000F1100100681200106D460100B5A30300CA
:103B6000A4120010DAA30300B0120010DD1001004F
:103B7000FFA3030024A40300C811001014010010C7
:103B800004010010EC100010041100108412001049
:103B90000C1100101411001094120010000040408D
:103BA000DC10001082E2473C713D7A3FFC100010AF
:103BB0007412001021702C4200002041801300106C
:103BC0007FB5132008F0F6FA012108F0D5FD032493
:103BD000132008F0EFFA012108F000FE4FF4FA700C
:103BE00008F05CFE132008F0E5FA002108F0F6FD6D
:103BF0004FF4FA7008F052FE013CE9D14FF4E13184
:103C00006E4808F098FE0121032008F0B5FD01215F
:103C1000102008F0B1FD2046012108F0ADFD012182
:103C20000F2008F0A9FD6648664C07F0B9FD66490B
:103C3000634807F085FD261DFF2301226049614886
:103C400007F048F861495D4808F017FB102130463D
:103C500006F0C4FD0146594808F032FB94F8505074
:103C600075BB574807F09CFD0121022008F084FD38
:103C70002946022008F0B2FD3221554807F087FF9F
:103C80000121022008F0AAFD132008F093FA012177
:103C900008F0A4FD4F49494808F012FB4C4807F0D2
:103CA00068FFB0B94C49454808F00AFB4B4807F09B
:103CB00060FF064690B14A49404808F001FBFEE724
:103CC00048493E4808F0FCFA4FF4FA7008F0E6FD67
:103CD000B2E74349394808F0F3FAFEE7424937486A
:103CE000424D08F0EDFA132008F064FA314608F06E
:103CF00075FD374807F066FF384807F063FF3C4B17
:103D00001C68236820469B689847236839499B6C48
:103D10002046984723683749DB6B2046984723683D
:103D20003549DB6A204698473449334800F0F2FCB5
:103D30003349314800F0EEFC32492F4800F0EAFCEC
:103D400023682D491B6D20469847042200230DEB64
:103D5000020101932948012300F0E0FA2E702A495C
:103D6000284624F02DFA28460921FDF7ECF92749C9
:103D7000284624F025FA31462846FDF7E4F924497F
:103D8000284624F01DFA29461D48FDF7D9F9214996
:103D90000A4808F07BFA236821461B6A01A8984765
:103DA00001A9064808F082FA01A808F0B7FB2368C9
:103DB00020465B6D984704B070BD00BFE82100103D
:103DC000681A00105C110010801A060007A6030094
:103DD000341100102FA603008BA603004811001019
:103DE00052A6030042A603009CA60300BC120010CA
:103DF000A4A70300ADA6030098120010A41200109F
:103E0000B012001068120010B9A6030089A60300C2
:103E1000BDA60300C1A6030000B5164B19680B68C8
:103E200097B003A81B6F984703A800F0F7FAD8B122
:103E30001149124808F02AFA03A9684600F0D4FA9A
:103E400069460E4808F032FA684608F067FB03A896
:103E500000F004FB20B1FEF75DFFFFF78DFDF6E7F4
:103E60000749064808F02CFA03A800F079FA17B0C1
:103E70005DF804FBA4A70300EBA50300E8210010F4
:103E8000FAA50300704710B55C2104461AF030FF14
:103E9000204610BD0A4A02601F210022C0E9092104
:103EA000C0E90B228286C0E90E220264A0F84420F9
:103EB00080F84620C0E91222C0E91522704700BFF1
:103EC000E4A603008B6A8362CB6AC3620B6B036355
:103ED00091F8343080F8343091F8353080F835304E
:103EE0008B6B8363CB6BC3630B6C0364B1F844309F
:103EF000A0F8443091F8463080F846308B6C8364EB
:103F0000CB6CC364B1F85030A0F850304B6D4365B2
:103F10008B6D8365704708B5FFF7D4FF08BD70B59A
:103F2000054686B068460E4603F008FDEC6C684610
:103F3000002CCCBF0234002403F03FFD0230241AD1
:103F4000A86A241808D4AC62AE64684603F035FD54
:103F5000E864012006B070BD0020FBE710B5036CDB
:103F60001BB190F8464084B90233941C1B1B846A31
:103F70001B1958BFC0E90F124FF000045BBF80F857
:103F8000464083622046012010BD0433EDE730B582
:103F9000046C1CB190F846508DB902341D1D641B91
:103FA000856A64195FBFC0E90F230123A0F844109C
:103FB00080F8463056BF84620020184630BD043475
:103FC000ECE730B5846D002CCCBF043400241D1DFB
:103FD000641B856A64195DBFC0E91523A0F8501001
:103FE0008462002058BF012030BD70B50546806B4B
:103FF0000E4688B1047814B1FDF728F8841C3046C9
:10400000FDF724F80230241AA86A24185DBFAC62B8
:10401000AE630120002070BD0446F0E790F8353013
:10402000826A002B0CBF6FF0020300239B185FBF56
:104030008362012380F8353080F8341054BF18466D
:104040000020704704307047406A704790F8350090
:10405000704738B50446406AC0F11F0393421546C5
:1040600008DB0430204423F01FFF626A2A446262A6
:10407000012038BD0020FCE770B50446406A0E46BA
:104080001D4611460233C0F11F029A420FDB23186E
:104090006A1C1A71821C0630626220445E712A46D4
:1040A00023F002FF636A2B446362012070BD00208D
:1040B000FCE770B586B00546684603F03FFC6846ED
:1040C00003F07BFC022804466846CCBF0626022685
:1040D00003F071FC2346024631462846FFF7CCFF29
:1040E00006B070BD13460A46FF21FFF7C5BF30B5C5
:1040F00089B0054610461C46ADF800101A46014628
:104100000DF1020023F0D0FEA31C6A46FF212846D1
:10411000FFF7B2FF09B030BD30B589B00546104693
:104120001C46ADF800101A4601460DF1020023F0BE
:10413000BBFEA31C6A4616212846FFF79DFF09B067
:1041400030BD07B501238DF807100DF107021946A0
:10415000FFF792FF03B05DF804FB70B5054610460B
:104160000E461446FCF772FF2246034631462846A7
:10417000BDE87040FFF780BF70B5054608460C46A5
:10418000FCF764FF1D2807D9224628461D23082175
:10419000BDE87040FFF770BF224628460921BDE800
:1041A0007040FFF7DABF38B5C16A002305464362A5
:1041B00029B1026B1AB1BDE83840FFF74ABF95F844
:1041C00035307BB395F834102846FFF7BAFF044624
:1041D000A96C21B12846FFF76CFF0440E4B2E96BFB
:1041E00061B12B6C53B195F84620EAB10A462846D6
:1041F000B5F84410FFF77BFF0440E4B26A6D42B1AA
:10420000AB6D33B1B5F850102846FFF785FF044079
:10421000E4B2A96B21B12846FFF7AEFF0440E4B237
:10422000204638BD0124D3E71A462846FFF75AFF37
:10423000E2E700000C4B10B504460360406838B15B
:1042400000F0B2FA20B9606810B103685B68984763
:10425000A06838B101F023F820B9A06810B1036854
:104260005B689847204610BDF4A6030010B50446CD
:10427000FFF7E0FF20460C211AF03AFD204610BD62
:10428000064B10B5C0E9003100230446836011B12C
:10429000084600F084FA204610BD00BFF4A60300D3
:1042A000064B10B5036000230446C0E9013111B18B
:1042B000084600F0EFFF204610BD00BFF4A6030043
:1042C0002DE9F3410446542098460E4617461AF04D
:1042D000E5FC9DF820300093054643463A463146BA
:1042E00000F03CFB29462046FFF7CAFF204602B0FB
:1042F000BDE8F0810346406808B100F065BA9868EF
:1043000008B100F0F1BF70470346406808B100F003
:104310005DBA986808B100F0E9BF704710B444680E
:1043200024B120465DF8044B00F052BA806818B101
:104330005DF8044B00F0DCBF5DF8044B70470346AA
:10434000406808B100F0A4BA986808B101F024B838
:104350007047406808B100F0A8BA704740687047DD
:1043600070470000024B186803681B69184700BFBC
:1043700084AA0300024B186803685B69184700BFF2
:1043800084AA030010B4054B01791B681A685469AC
:10439000421D184623465DF8044B1847D8A8030071
:1043A00010B50B4B0446186821790368621D9B6A9F
:1043B00098474FF6FF739842014606D0054B1868A0
:1043C0000268BDE81040926A104794F94B0010BD96
:1043D000D8A8030084AA030010B54C2104461AF0A3
:1043E00087FC204610BD000010B58AB04B790393BE
:1043F0008B790293CB7901930B7A009304464B7A25
:104400008A7A054905A81AF07DFE05A9204608F01C
:10441000CBF820460AB010BDFCA6030007B5002368
:104420000622694605300093ADF8043023F02EFDD6
:10443000003018BF012003B05DF804FB08B5027915
:104440000B799A4208D106220531053023F01EFD72
:10445000B0FA80F0400908BD0020FCE710B50A4B17
:104460000446186803681B699847236820461B6A3E
:10447000984740B1054B217918680368621D5B6B52
:10448000BDE81040184710BD84AA0300D8A8030057
:1044900008B502790B799A4208D106220531053018
:1044A00023F0F4FC003018BF012008BD0120FCE718
:1044B000064A02607F210022C272027380F84B100C
:1044C000C0F80520A0F80920704700BF24A703000A
:1044D00010B501710021C1720173064C04607F2187
:1044E00080F84B101168C0F805109288A0F80920D8
:1044F00010BD00BF24A70300F8B50F4612490646B9
:1045000008F052F8397B0024A1421ADD3B19A21CA5
:104510005D7B9B7B083B012B05F1FF350FD82946BE
:10452000304608F01AF80F343C440027BD4208DD3D
:1045300014F8011B304608F08AF80137F6E7AC188A
:10454000E2E73046F8BD00BF38D103002DE9F04F57
:1045500085B0884622490192834608F025F8002458
:10456000A14698F80C30A34235D908EB0403671C28
:10457000FFB25E7B08EB07035B7B9A1E012A25D9FD
:10458000063B012B24D8102505FB05F302340093CC
:1045900058FA84F44FF0000A731EEAB2534517DD4F
:1045A000019989450CD1114604F10D000393029243
:1045B00003F006FA0146584608F021F8DDE9022327
:1045C000009909F10109AA440C44E7E70225DBE759
:1045D0003E44F4B2C5E7584605B0BDE8F08F00BFD1
:1045E00038D1030010B500220446FFF7AFFF204684
:1045F00010BD08B5134602798A4208D10622194631
:10460000053023F043FCB0FA80F0400908BD0020DB
:10461000FCE710B50446012000FA01F1E1722273B3
:10462000194604F10D0023F03FFC9DF9083084F891
:104630004B3010BD70B50D461146C27A42F01002E3
:104640000446C272007B0D302A4620441E4623F0E9
:104650002BFC237B84F84B601D44257370BDC37A0B
:1046600013F0180F14BF0120002070470C4B10B539
:1046700004460360406838B100F096F820B96068DD
:1046800010B103685B689847A06838B100F007FE76
:1046900020B9A06810B103685B689847204610BD38
:1046A00058A7030010B50446FFF7E0FF20460C2191
:1046B0001AF01EFB204610BD064B10B5C0E90031B4
:1046C00000230446836011B1084600F068F82046D4
:1046D00010BD00BF58A7030070B5044630200E4639
:1046E0001AF0DCFA3146054600F00EFD2946204658
:1046F000FFF7E2FF204670BD0346406808B100F0B6
:1047000045B8986808B100F0C3BD0148704700BFC4
:1047100038D10300406808B100F034BD70474068EC
:104720007047000030B585B001250446009504238C
:1047300092B2FFF7C5FD074B2360002303930422C9
:104740002B4603A92046FFF7E9FD034B23602046D3
:1047500005B030BD78A3030088A303007047002094
:10476000704710B5202104461AF0C2FA204610BD49
:1047700010B5054B044640F8043B03F0DFF8002376
:10478000E361204610BD00BF68A70300043003F0BA
:1047900010B9043003F00FB9043003F00EB9C36947
:1047A0000133C36118467047C369013BC3611846B2
:1047B000704742F60300704790F82000704790F869
:1047C00021007047406A7047806A7047808D70474B
:1047D000F8B51546426AAA42A8BF2A460446828511
:1047E00092B2806A0E4623F05FFB94F82E300BB134
:1047F000636AA38594F8203098060DD5A28E9107A0
:104800000AD51F4B218E186803685D6D0131A38D99
:10481000A26A89B2A847F8BDDA0609D5A38EDB07DC
:1048200006D5174B218E1868036801311D6DEEE720
:1048300094F832300BB90120EDE7124B1868036889
:1048400021465B6A9847104B1C68236801461F6B22
:1048500032462B462046B847094B186803681B6B45
:1048600098470028E7D1094B186803689B68984768
:104870000028E0D0236820465B6D9847DBE700BF47
:10488000D8A8030024AA0300A4A70300D8A9030002
:1048900038B5054608460C46FCF7D8FB21460246CB
:1048A0002846BDE83840FFF793BF0346002290F842
:1048B000330083F83320704701867047008E7047BD
:1048C000008E013080B27047806B7047836B9942D5
:1048D00008D2C36B0022914202D05B680132FAE732
:1048E000186870470020704730B5114B03600B7992
:1048F00003710B4601F1490453F8052FC0F8052058
:104900009B88A0F80930CB7AC3720B7B037300F14C
:104910000D0201F10D0353F8045B42F8045BA3425E
:10492000F9D11B88138091F94B3080F84B3030BDA2
:1049300024A7030038B5044608200D461AF0AEF946
:104940000023C0E9005363682BB960602368A0604E
:104950000133236038BDA3685860F7E770B504469B
:104960001D461646FFF704FFB5F5007F194B23607F
:104970002B46A8BF4FF40073002163629DF81030EE
:104980002684A18584F82E302163A186C4E90E1106
:104990002164102204F1440023F094FA16F0300F41
:1049A00011D02C201AF07AF90B490646022304F1A3
:1049B000340200F0D7F83046FFF7F1FE314604F13B
:1049C0003800FFF7B7FF284623F050FAA0622046D0
:1049D00070BD00BF84A7030074A7030070B5044630
:1049E000406800252368AB4206D9466808211AF0C2
:1049F0007FF901353046F5E70023C4E90033A360B1
:104A000070BD0000154B70B5044603600025A36B14
:104A10009D4212D2E36B0022954202D05B680132C4
:104A2000FAE71E683046FFF7BFFE20B91EB13368B3
:104A300030465B6898470135E9E704F138052846B8
:104A4000FFF7CCFFA06A08B123F018FA2846FFF759
:104A5000C5FF2046FFF782FE204670BD84A70300F5
:104A600010B50446FFF7CEFF204654211AF040F956
:104A7000204610BDF0B5C56C97B0044617461E46DB
:104A80007DB103A8FFF730FF21466846FFF7F8FB2A
:104A9000694603A8A8476846FFF7CCFB03A8FFF7C1
:104AA0005FFCA16A1C9A3944304623F0FDF917B027
:104AB000F0BD70B504460E461146012280F8332041
:104AC00096B01A46FFF784FE256D85B1314603A8DE
:104AD000FFF70AFF21466846FFF7D2FB694603A8A5
:104AE000A8476846FFF7A6FB03A8FFF739FC16B0F6
:104AF00070BD30B5838E02F00302934297B0044636
:104B000017D08286002A0CBF4422402202445568F6
:104B10007DB103A8FFF7E8FE21466846FFF7B0FB2A
:104B2000694603A8A8476846FFF784FB03A8FFF778
:104B300017FC17B030BD4FF42450704710B5034B2D
:104B400003600446FFF70AFE204610BD98A7030045
:104B500010B50446FFF7F2FF20462C211AF0C8F8E2
:104B6000204610BD70B504461D461646FFF700FEF0
:104B7000064B2360B5F5007FA8BF4FF400750023F6
:104B8000266265622385204670BD00BF98A703009A
:104B9000406A7047006A704701857047064B186885
:104BA000036810B5DB689847044B18680368BDE8D4
:104BB0001040DB68184700BF24AA030084AA030042
:104BC000024B186803681B69184700BF84AA0300DA
:104BD000024B186803685B69184700BF84AA03008A
:104BE00010B5064B186803681B699847044B186892
:104BF0000368BDE810401B6B184700BF84AA030080
:104C0000D8A8030010B5064B186803681B699847BD
:104C1000044B18680368BDE81040DB6B184700BF01
:104C200084AA0300D8A80300024B186803689B6C91
:104C3000184700BFD8A803000C3070476830704791
:104C4000024B186803681B69184700BF24AA0300B9
:104C5000024B186803685B69184700BF24AA030069
:104C6000024B186803689B69184700BF24AA030019
:104C7000024B186803681B69184700BFD8A90300D6
:104C8000024B186803685B69184700BFD8A9030086
:104C9000024B186803685B6A184700BFD8A9030075
:104CA00010B5074B0446186803681B699847054B05
:104CB00019680B682046DB6C9847204610BD00BF82
:104CC00084AA0300D8A8030010B5074B044618684F
:104CD00003681B699847054B19680B6820469B6A57
:104CE0009847204610BD00BF84AA0300D8A903003E
:104CF000024B18680368DB6A184700BFD8A9030095
:104D0000024B186803689B69184700BFD8AC0300C2
:104D1000024B18680368DB69184700BFD8AC030072
:104D2000024B186803681B6B184700BFD8A9030023
:104D3000024B18680368DB68184700BFD8A8030057
:104D4000024B186803681B6A184700BFD8AC030001
:104D5000024B186803685B6A184700BFD8AC0300B1
:104D6000024B1B68C3F8F010704700BF84AA030011
:104D7000024B1B68C3F8F810704700BF84AA0300F9
:104D8000024B1B68C3F8F410704700BF84AA0300ED
:104D9000024B1B68C3F8EC10704700BF84AA0300E5
:104DA000024B1B68C3F8FC10704700BF84AA0300C5
:104DB000024B1B68C3F80011704700BF84AA0300B0
:104DC000024B18680368D3F89C30184784AA030084
:104DD000024B18680368D3F8A030184784AA030070
:104DE000F0B52A4B1D682B6887B004469B6828469F
:104DF0009847064620B923682046DB6898470DE0AF
:104E0000642007F04BFD2B6828469B6998470646AF
:104E100038B123682046DB6898470026304607B043
:104E2000F0BD05AA2B6801920DF112020092DF6914
:104E300004AA0DF10E030DF10D012846B847002814
:104E4000D9D12B684FF0FF32D96A28466FF0404322
:104E500088470028CFD12B6840F2FF32196B2846D3
:104E60000023884706460028D3D12B680DF10F0296
:104E70005B6B0DF11601284698470028BBD1044B07
:104E8000186803689B6898470126C7E784AA03004F
:104E900024AA030010B58CB000230593ADF8183098
:104EA000104B04461868036805A91B6A98479DF8CB
:104EB000143003939DF8153002939DF8163001933A
:104EC0009DF8173000939DF819209DF81830064979
:104ED00007A81AF017F907A9204607F065FB204636
:104EE0000CB010BD84AA0300FCA603000C30FFF731
:104EF00016B870B50368044608469D6AFFF7FCFBC8
:104F00002B4601462046BDE8704018470C30FFF79D
:104F100058B80C30FFF722B80C30FFF738B86830BB
:104F2000FFF763B86830FEF7F6BF10B500F10C0468
:104F30002046FEF7F0FF2046FFF788F828B9204604
:104F40000621BDE81040FFF769B810BD2DE9F74311
:104F500000F10C05044668342846FFF724F9204682
:104F6000FFF721F90E4B1E6833682846DF68FFF70C
:104F700069F880462846FFF767F805462046FFF7A0
:104F800061F881462046FFF75FF8C0B200904B46BB
:104F9000EAB241463046B84703B0BDE8F08300BFEF
:104FA000D8A903007FB5094B1C682368164601A8E1
:104FB0009D6907F01AFB324601A92046A84704461E
:104FC00001A807F0ABFA204604B070BDD8A90300D1
:104FD0007FB5094B1C682368164601A8DD6907F0F8
:104FE00004FB324601A92046A847044601A807F061
:104FF00095FA204604B070BDD8A903007FB5094BCF
:105000001C682368164601A81D6A07F0EEFA3246AE
:1050100001A92046A847044601A807F07FFA2046C8
:1050200004B070BDD8A9030002290BBF044B054B87
:10503000186818680BBF036803685B6B9B6D1847A3
:10504000D8A90300D8A8030038B50446084B44F893
:105050000C3B05462046FEF71DFF05F16800FEF7F4
:1050600019FF06212046FEF7D9FF284638BD00BFAC
:10507000B0A7030010B5054C2046FFF7E5FF20461A
:10508000034A0449BDE8104019F0E8BB881300103A
:10509000000100109950010010B5064B044640F87D
:1050A000683BFEF7EFFE04F10C00FEF7EBFE204636
:1050B00010BD00BFB0A7030010B50446FFF7ECFF1A
:1050C0002046C42119F014FE204610BD10B50B4B2C
:1050D00019680B6894B001A8DB6C984701A8FFF72A
:1050E0009DF948B101A8FFF75BF9044601A8FFF755
:1050F00037F9204614B010BD7F24F7E7D8A8030085
:105100004FF420507047000010B50446FFF730FB05
:10511000044B23600023C4E90833C4E90A33204662
:1051200010BD00BF7CA80300018442847047008C3E
:105130007047408C7047406A7047436A994208D272
:10514000836A0022914202D05B680132FAE7186854
:1051500070470020704738B5044608460D46FFF7F3
:105160001EFB082019F09AFD0023C0E90053A36A32
:105170002BB9A062636AE0620133636238BDE36AFF
:105180005860F7E710B504460846FFF7E7F8014610
:1051900020B12046BDE81040FFF7DDBF10BD70B55F
:1051A0000446406800252368AB4206D946680821BA
:1051B00019F09EFD01353046F5E70023C4E90033C0
:1051C000A36070BD10B504462430FFF7E8FF00234C
:1051D000236210BD134B70B5044603600025636A5B
:1051E0009D4212D2A36A0022954202D05B6801322E
:1051F000FAE71E683046FFF7D7FA20B91EB13368C8
:1052000030465B6898470135E9E72046FFF7DAFF4B
:1052100004F12400FFF7C3FF2046FFF79FFA204662
:1052200070BD00BF7CA8030010B50446FFF7D2FF95
:105230002046302119F05CFD204610BD10B5044B0E
:10524000044640F8043B07F069F9204610BD00BF52
:1052500090A8030010B50446FFF7F0FF2046142184
:1052600019F046FD204610BD38B504462546074BCB
:1052700045F8043B0846114602F0A2FB01462846C9
:1052800007F092F900232361204638BD90A803005F
:10529000406870470369013303611846704703692A
:1052A000013B03611846704738B504461D46FFF7B9
:1052B000DBFF0C4B2360BDF81030E382BDF81430E7
:1052C0002383BDF8183063834FF480720023A582D6
:1052D000C4E90733A284C4E90A33C4E90C33204685
:1052E00038BD00BFA0A80300C0697047006A7047BE
:1052F0002DE9F0439846274B1E68336885B0044675
:105300000F469B6B818A30469146984718B900201A
:1053100005B0BDE8F0833368A18A5B6C30469847DE
:10532000033885B24D45A8BF4D462946E06922F0B5
:10533000CFFEE0610028EAD0237E1A071CD5B8F121
:10534000000F19D003AA33680192EAB20092D3F891
:105350006080628BA18A3B463046C0470028D7D088
:105360009DF80C30012BD2D02A463946E06922F054
:105370009BFD25620120CBE75B07C8D53368A18A76
:10538000EAB20092D3F86480628B3B463046C04755
:10539000EAE700BFD8A8030070B5054608461646E0
:1053A0000C46FBF753FE3346024621462846BDE82D
:1053B0007040FFF79DBF408B704738B504460846E4
:1053C0000D46FFF767FF082019F068FC0023C0E9CD
:1053D0000053E36A2BB9E062A36A20630133A3623E
:1053E00038BD236B5860F7E770B504464068002568
:1053F0002368AB4206D94668082119F079FC0135CB
:105400003046F5E70023C4E90033A36070BD0368AC
:105410008B4208D9436800228A4202D05B6801327D
:10542000FAE718687047002070470000F8B5054695
:10543000134B45F8283B04460026A36A9E420ED231
:1054400031462846FFF7E3FF0746FFF728FF20B95C
:105450001FB13B6838465B6898470136EDE7284640
:10546000FFF7C2FFE06918B122F008FD0023E361F5
:105470002846FFF7B9FF2046FFF7E0FE2046F8BDBB
:10548000A0A8030010B50446FFF7D0FF204638213E
:1054900019F02EFC204610BD70B50446036296B08C
:1054A0000D46C0691946164622F012FEE06110B999
:1054B000206216B070BD01233146A384226A22F017
:1054C000F3FC666B002EF4D0194B03932B798DF807
:1054D00010302B4605F1490153F8052FCDF8112066
:1054E0009B88ADF81530EB7A8DF817302B7B8DF853
:1054F00018300DF1190205F10D0353F8040B42F8B1
:10550000040B8B42F9D11B88138095F84B308DF832
:10551000573021466846FEF7C3FE694603A8B047E8
:105520006846FEF787FE03A8FEF71AFFC1E700BF33
:1055300024A70300074B10B504460360806918B127
:1055400022F09CFC0023A3612046FFF777FE204653
:1055500010BD00BFB0A8030010B50446FFF7EAFF76
:105560002046202119F0C4FB204610BD38B5044662
:105570001D46FFF779FE054B2360BDF81030E3822E
:105580000023A582C4E90633204638BDB0A8030035
:10559000034A02600022C0E90122C260704700BFD6
:1055A000C0A8030038B5044608460D46FFF772FE52
:1055B000082019F073FB0023C0E90053A3682BB93E
:1055C000A0606368E0600133636038BDE3685860E1
:1055D000F7E7406870474368994208D28368002221
:1055E000914202D05B680132FAE7186870470020E8
:1055F000704770B50446406800252368AB4206D961
:105600004668082119F074FB01353046F5E70023A0
:10561000C4E90033A36070BD70B50646002473680A
:105620009C4212D2B3680022944202D05B680132DD
:10563000FAE71D682846FFF732FE20B91DB12B6836
:1056400028465B6898470134E9E7301DFFF7D1FF32
:1056500070BD000038B50446054B44F8043B0546D0
:10566000FFF7DAFF2046FFF7C4FF284638BD00BF2A
:10567000C0A8030010B50446FFF7ECFF2046102138
:1056800019F036FB204610BD38B504461D46FFF71D
:10569000EBFD084B2360BDF81030E382A58206497C
:1056A00004F1180006F080FF0023C4E90933E36227
:1056B000204638BDD0A8030038D10300808A704747
:1056C000C08A7047406A7047436A994208D2836A29
:1056D0000022914202D05B680132FAE718687047F5
:1056E0000020704738B5044608460D46FFF7D2FD46
:1056F000082019F0D3FA0023C0E90053A36A2BB99C
:10570000A062636AE0620133636238BDE36A586095
:10571000F7E770B50446406800252368AB4206D918
:105720004668082119F0E4FA01353046F5E7002310
:10573000C4E90033A36070BD154B70B50446036027
:105740000025636A9D4212D2A36A0022954202D0CC
:105750005B680132FAE71E683046FFF7A0FD20B90A
:105760001EB1336830465B6898470135E9E704F1BC
:1057700024052846FFF7CDFF2846FFF7CAFF04F1AE
:10578000180006F0CBFE2046FFF758FD204670BDFE
:10579000D0A8030010B50446FFF7CEFF2046302105
:1057A00019F0A6FA204610BDA0F8A8107047C0F85E
:1057B000AC1070472DE9FF41013A13F8014BD6B206
:1057C0000268CDE90233526C05460F4690470C2C17
:1057D00002462968029B79D02FD8052C69D01AD8A7
:1057E000022C60D00BD8012C53D006230093D1F8A3
:1057F000DC600023224639462846B0476EE0032C81
:1058000054D0042CF1D10093D1F89440334639465A
:105810002846A04762E0092C52D007D8062C4BD06E
:10582000082CE2D10093D1F8A440EFE70A2C4DD028
:105830000B2CDAD1D1F8B4402DE0162C51D00FD872
:10584000112C40D005D8102CCFD10093D1F8B840FE
:10585000DCE7122C18D0132CC7D1D1F8C8401AE0BD
:105860001D2C04D00CD8182C3FD01B2CBDD100937C
:10587000D1F8D4803346224639462846C0472DE029
:105880001E2C36D0522CB0D1CDE90063D1F8C460C3
:1058900020E0D1F88440324639462846A44604B078
:1058A000BDE8F0416047D1F88840F4E7D1F8904076
:1058B000F1E7D1F89C40EEE70093D1F8A040A5E7CE
:1058C000D1F8AC40E7E7D1F8C040E4E7CDE90063A8
:1058D000D1F8B060234639462846B04704B0BDE849
:1058E000F0810093D1F8CC4090E70093D1F8D040FC
:1058F0008CE7D1F8D840CEE7B0F8B0204FF6FF7370
:105900009A4209D1B0F8CC30934205D1B0F8E80002
:10591000C01A18BF012070470120704708B50368FE
:105920009B6A98474FF6FF73C01A18BF012008BD45
:1059300038B50B4B0546186803681B690C46984739
:10594000B5F8B030A34209D0B5F8CC30A34205D0A9
:10595000B5F8E800031B5842584138BD0120FCE768
:1059600084AA030090F9C830002B07DB90F9E430DB
:10597000002B03DB90F80001C0097047012070473D
:10598000B0F8B0308B420ED0B0F8CC308B420CD097
:10599000B0F8E8308B420AD102231C2202FB030339
:1059A000B3F8C00070470023F7E70123F5E717209D
:1059B00070471FB5ADF80D200268009302248DF8E2
:1059C0000C400323D2F8F04003AAA04704B010BD56
:1059D0001FB5ADF80920ADF80B30069A03680092A8
:1059E00004248DF8084002AAD3F8F0400523A0470C
:1059F00004B010BD1FB5ADF80B30BDF81830ADF8D0
:105A00000920ADF80D30079A0368009210248DF834
:105A1000084002AAD3F8F0400723A04704B010BD05
:105A20001FB5ADF80B30BDF81830ADF80920ADF852
:105A30000D30079A0368009208248DF8084002AAE6
:105A4000D3F8F0400723A04704B010BD012380F82D
:105A5000043170471FB5ADF80A309DF818308DF845
:105A60000C30084B8DF8092001208DF808001868CB
:105A700002AA03680092D3F8944004220523A047A9
:105A800004B010BD84AA030001299CBF00EB810073
:105A9000C0F81C2170471FB5ADF80D2002680093B7
:105AA0000A248DF80C400323D2F8F04003AAA04743
:105AB00004B010BD30B5B0F8B0308B421BD0B0F898
:105AC000CC308B4219D0B0F8E8308B4217D102238A
:105AD0001C2101FB0301B431941D11F8015B04F892
